{
  "contractName": "MainContract",
  "abi": [
    {
      "anonymous": false,
      "inputs": [
        {
          "indexed": false,
          "internalType": "address",
          "name": "doctorAddr",
          "type": "address"
        },
        {
          "indexed": false,
          "internalType": "string",
          "name": "doctorName",
          "type": "string"
        },
        {
          "indexed": false,
          "internalType": "string",
          "name": "doctorIC",
          "type": "string"
        },
        {
          "indexed": false,
          "internalType": "uint256",
          "name": "timestamp",
          "type": "uint256"
        }
      ],
      "name": "DoctorCreated",
      "type": "event"
    },
    {
      "anonymous": false,
      "inputs": [
        {
          "indexed": false,
          "internalType": "address",
          "name": "patientAddr",
          "type": "address"
        },
        {
          "indexed": false,
          "internalType": "string",
          "name": "patientName",
          "type": "string"
        },
        {
          "indexed": false,
          "internalType": "string",
          "name": "patientIC",
          "type": "string"
        },
        {
          "indexed": false,
          "internalType": "uint256",
          "name": "timestamp",
          "type": "uint256"
        }
      ],
      "name": "PatientCreated",
      "type": "event"
    },
    {
      "anonymous": false,
      "inputs": [
        {
          "indexed": false,
          "internalType": "string",
          "name": "encryptedID",
          "type": "string"
        },
        {
          "indexed": false,
          "internalType": "string",
          "name": "dataHash",
          "type": "string"
        },
        {
          "indexed": false,
          "internalType": "address",
          "name": "issuerDoctorAddr",
          "type": "address"
        },
        {
          "indexed": false,
          "internalType": "uint256",
          "name": "timestamp",
          "type": "uint256"
        },
        {
          "indexed": false,
          "internalType": "enum MainContract.RecordStatus",
          "name": "recordStatus",
          "type": "uint8"
        },
        {
          "indexed": false,
          "internalType": "address",
          "name": "patientAddr",
          "type": "address"
        }
      ],
      "name": "RecordCreated",
      "type": "event"
    },
    {
      "anonymous": false,
      "inputs": [
        {
          "indexed": false,
          "internalType": "address",
          "name": "patientAddr",
          "type": "address"
        },
        {
          "indexed": false,
          "internalType": "address",
          "name": "doctorAddr",
          "type": "address"
        },
        {
          "indexed": false,
          "internalType": "uint256",
          "name": "timestamp",
          "type": "uint256"
        }
      ],
      "name": "WhitelistDoctor",
      "type": "event"
    },
    {
      "inputs": [
        {
          "internalType": "address",
          "name": "",
          "type": "address"
        }
      ],
      "name": "doctorList",
      "outputs": [
        {
          "components": [
            {
              "internalType": "address",
              "name": "addr",
              "type": "address"
            },
            {
              "internalType": "string",
              "name": "IC",
              "type": "string"
            },
            {
              "internalType": "string",
              "name": "name",
              "type": "string"
            },
            {
              "internalType": "string",
              "name": "gender",
              "type": "string"
            },
            {
              "internalType": "string",
              "name": "birthdate",
              "type": "string"
            },
            {
              "internalType": "string",
              "name": "email",
              "type": "string"
            },
            {
              "internalType": "string",
              "name": "homeAddress",
              "type": "string"
            },
            {
              "internalType": "string",
              "name": "phone",
              "type": "string"
            },
            {
              "internalType": "uint256",
              "name": "userSince",
              "type": "uint256"
            }
          ],
          "internalType": "struct MainContract.User",
          "name": "primaryInfo",
          "type": "tuple"
        },
        {
          "internalType": "string",
          "name": "qualification",
          "type": "string"
        },
        {
          "internalType": "string",
          "name": "major",
          "type": "string"
        }
      ],
      "stateMutability": "view",
      "type": "function"
    },
    {
      "inputs": [
        {
          "internalType": "address",
          "name": "",
          "type": "address"
        }
      ],
      "name": "patientList",
      "outputs": [
        {
          "components": [
            {
              "internalType": "address",
              "name": "addr",
              "type": "address"
            },
            {
              "internalType": "string",
              "name": "IC",
              "type": "string"
            },
            {
              "internalType": "string",
              "name": "name",
              "type": "string"
            },
            {
              "internalType": "string",
              "name": "gender",
              "type": "string"
            },
            {
              "internalType": "string",
              "name": "birthdate",
              "type": "string"
            },
            {
              "internalType": "string",
              "name": "email",
              "type": "string"
            },
            {
              "internalType": "string",
              "name": "homeAddress",
              "type": "string"
            },
            {
              "internalType": "string",
              "name": "phone",
              "type": "string"
            },
            {
              "internalType": "uint256",
              "name": "userSince",
              "type": "uint256"
            }
          ],
          "internalType": "struct MainContract.User",
          "name": "primaryInfo",
          "type": "tuple"
        },
        {
          "internalType": "string",
          "name": "emergencyContact",
          "type": "string"
        },
        {
          "internalType": "string",
          "name": "emergencyNumber",
          "type": "string"
        },
        {
          "internalType": "string",
          "name": "bloodType",
          "type": "string"
        },
        {
          "internalType": "string",
          "name": "height",
          "type": "string"
        },
        {
          "internalType": "string",
          "name": "weight",
          "type": "string"
        }
      ],
      "stateMutability": "view",
      "type": "function"
    },
    {
      "inputs": [
        {
          "internalType": "string",
          "name": "",
          "type": "string"
        }
      ],
      "name": "recordList",
      "outputs": [
        {
          "internalType": "string",
          "name": "encryptedID",
          "type": "string"
        },
        {
          "internalType": "string",
          "name": "dataHash",
          "type": "string"
        },
        {
          "internalType": "address",
          "name": "issuerDoctorAddr",
          "type": "address"
        },
        {
          "internalType": "uint256",
          "name": "timestamp",
          "type": "uint256"
        },
        {
          "internalType": "enum MainContract.RecordStatus",
          "name": "recordStatus",
          "type": "uint8"
        }
      ],
      "stateMutability": "view",
      "type": "function"
    },
    {
      "inputs": [],
      "name": "totalDoctors",
      "outputs": [
        {
          "internalType": "uint256",
          "name": "",
          "type": "uint256"
        }
      ],
      "stateMutability": "view",
      "type": "function"
    },
    {
      "inputs": [],
      "name": "totalPatients",
      "outputs": [
        {
          "internalType": "uint256",
          "name": "",
          "type": "uint256"
        }
      ],
      "stateMutability": "view",
      "type": "function"
    },
    {
      "inputs": [
        {
          "components": [
            {
              "internalType": "address",
              "name": "addr",
              "type": "address"
            },
            {
              "internalType": "string",
              "name": "IC",
              "type": "string"
            },
            {
              "internalType": "string",
              "name": "name",
              "type": "string"
            },
            {
              "internalType": "string",
              "name": "gender",
              "type": "string"
            },
            {
              "internalType": "string",
              "name": "birthdate",
              "type": "string"
            },
            {
              "internalType": "string",
              "name": "email",
              "type": "string"
            },
            {
              "internalType": "string",
              "name": "homeAddress",
              "type": "string"
            },
            {
              "internalType": "string",
              "name": "phone",
              "type": "string"
            },
            {
              "internalType": "uint256",
              "name": "userSince",
              "type": "uint256"
            }
          ],
          "internalType": "struct MainContract.User",
          "name": "userInfo",
          "type": "tuple"
        },
        {
          "internalType": "string",
          "name": "_emergencyContact",
          "type": "string"
        },
        {
          "internalType": "string",
          "name": "_emergencyNumber",
          "type": "string"
        },
        {
          "internalType": "string",
          "name": "_bloodType",
          "type": "string"
        },
        {
          "internalType": "string",
          "name": "_height",
          "type": "string"
        },
        {
          "internalType": "string",
          "name": "_weight",
          "type": "string"
        },
        {
          "internalType": "address[]",
          "name": "_whitelistedDoctor",
          "type": "address[]"
        },
        {
          "internalType": "string[]",
          "name": "_recordList",
          "type": "string[]"
        }
      ],
      "name": "createPatient",
      "outputs": [],
      "stateMutability": "nonpayable",
      "type": "function"
    },
    {
      "inputs": [
        {
          "components": [
            {
              "internalType": "address",
              "name": "addr",
              "type": "address"
            },
            {
              "internalType": "string",
              "name": "IC",
              "type": "string"
            },
            {
              "internalType": "string",
              "name": "name",
              "type": "string"
            },
            {
              "internalType": "string",
              "name": "gender",
              "type": "string"
            },
            {
              "internalType": "string",
              "name": "birthdate",
              "type": "string"
            },
            {
              "internalType": "string",
              "name": "email",
              "type": "string"
            },
            {
              "internalType": "string",
              "name": "homeAddress",
              "type": "string"
            },
            {
              "internalType": "string",
              "name": "phone",
              "type": "string"
            },
            {
              "internalType": "uint256",
              "name": "userSince",
              "type": "uint256"
            }
          ],
          "internalType": "struct MainContract.User",
          "name": "userInfo",
          "type": "tuple"
        },
        {
          "internalType": "string",
          "name": "_emergencyContact",
          "type": "string"
        },
        {
          "internalType": "string",
          "name": "_emergencyNumber",
          "type": "string"
        },
        {
          "internalType": "string",
          "name": "_bloodType",
          "type": "string"
        },
        {
          "internalType": "string",
          "name": "_height",
          "type": "string"
        },
        {
          "internalType": "string",
          "name": "_weight",
          "type": "string"
        },
        {
          "internalType": "address[]",
          "name": "_whitelistedDoctor",
          "type": "address[]"
        },
        {
          "internalType": "string[]",
          "name": "_recordList",
          "type": "string[]"
        }
      ],
      "name": "setPatientDetails",
      "outputs": [],
      "stateMutability": "nonpayable",
      "type": "function"
    },
    {
      "inputs": [
        {
          "internalType": "address",
          "name": "doctorAddress",
          "type": "address"
        },
        {
          "internalType": "address",
          "name": "patientAddress",
          "type": "address"
        }
      ],
      "name": "addWhitelistedDoctor",
      "outputs": [],
      "stateMutability": "nonpayable",
      "type": "function"
    },
    {
      "inputs": [
        {
          "internalType": "address",
          "name": "doctorAddress",
          "type": "address"
        },
        {
          "internalType": "address",
          "name": "patientAddress",
          "type": "address"
        }
      ],
      "name": "removeWhitelistedDoctor",
      "outputs": [],
      "stateMutability": "nonpayable",
      "type": "function"
    },
    {
      "inputs": [
        {
          "internalType": "address",
          "name": "patientAddress",
          "type": "address"
        }
      ],
      "name": "getPatientDetails",
      "outputs": [
        {
          "components": [
            {
              "components": [
                {
                  "internalType": "address",
                  "name": "addr",
                  "type": "address"
                },
                {
                  "internalType": "string",
                  "name": "IC",
                  "type": "string"
                },
                {
                  "internalType": "string",
                  "name": "name",
                  "type": "string"
                },
                {
                  "internalType": "string",
                  "name": "gender",
                  "type": "string"
                },
                {
                  "internalType": "string",
                  "name": "birthdate",
                  "type": "string"
                },
                {
                  "internalType": "string",
                  "name": "email",
                  "type": "string"
                },
                {
                  "internalType": "string",
                  "name": "homeAddress",
                  "type": "string"
                },
                {
                  "internalType": "string",
                  "name": "phone",
                  "type": "string"
                },
                {
                  "internalType": "uint256",
                  "name": "userSince",
                  "type": "uint256"
                }
              ],
              "internalType": "struct MainContract.User",
              "name": "primaryInfo",
              "type": "tuple"
            },
            {
              "internalType": "string",
              "name": "emergencyContact",
              "type": "string"
            },
            {
              "internalType": "string",
              "name": "emergencyNumber",
              "type": "string"
            },
            {
              "internalType": "string",
              "name": "bloodType",
              "type": "string"
            },
            {
              "internalType": "string",
              "name": "height",
              "type": "string"
            },
            {
              "internalType": "string",
              "name": "weight",
              "type": "string"
            },
            {
              "internalType": "address[]",
              "name": "whitelistedDoctor",
              "type": "address[]"
            },
            {
              "internalType": "string[]",
              "name": "recordList",
              "type": "string[]"
            }
          ],
          "internalType": "struct MainContract.Patient",
          "name": "",
          "type": "tuple"
        }
      ],
      "stateMutability": "view",
      "type": "function"
    },
    {
      "inputs": [
        {
          "components": [
            {
              "internalType": "address",
              "name": "addr",
              "type": "address"
            },
            {
              "internalType": "string",
              "name": "IC",
              "type": "string"
            },
            {
              "internalType": "string",
              "name": "name",
              "type": "string"
            },
            {
              "internalType": "string",
              "name": "gender",
              "type": "string"
            },
            {
              "internalType": "string",
              "name": "birthdate",
              "type": "string"
            },
            {
              "internalType": "string",
              "name": "email",
              "type": "string"
            },
            {
              "internalType": "string",
              "name": "homeAddress",
              "type": "string"
            },
            {
              "internalType": "string",
              "name": "phone",
              "type": "string"
            },
            {
              "internalType": "uint256",
              "name": "userSince",
              "type": "uint256"
            }
          ],
          "internalType": "struct MainContract.User",
          "name": "userInfo",
          "type": "tuple"
        },
        {
          "internalType": "string",
          "name": "_qualification",
          "type": "string"
        },
        {
          "internalType": "string",
          "name": "_major",
          "type": "string"
        }
      ],
      "name": "createDoctor",
      "outputs": [],
      "stateMutability": "nonpayable",
      "type": "function"
    },
    {
      "inputs": [
        {
          "components": [
            {
              "internalType": "address",
              "name": "addr",
              "type": "address"
            },
            {
              "internalType": "string",
              "name": "IC",
              "type": "string"
            },
            {
              "internalType": "string",
              "name": "name",
              "type": "string"
            },
            {
              "internalType": "string",
              "name": "gender",
              "type": "string"
            },
            {
              "internalType": "string",
              "name": "birthdate",
              "type": "string"
            },
            {
              "internalType": "string",
              "name": "email",
              "type": "string"
            },
            {
              "internalType": "string",
              "name": "homeAddress",
              "type": "string"
            },
            {
              "internalType": "string",
              "name": "phone",
              "type": "string"
            },
            {
              "internalType": "uint256",
              "name": "userSince",
              "type": "uint256"
            }
          ],
          "internalType": "struct MainContract.User",
          "name": "userInfo",
          "type": "tuple"
        },
        {
          "internalType": "string",
          "name": "_qualification",
          "type": "string"
        },
        {
          "internalType": "string",
          "name": "_major",
          "type": "string"
        }
      ],
      "name": "setDoctorDetails",
      "outputs": [],
      "stateMutability": "nonpayable",
      "type": "function"
    },
    {
      "inputs": [
        {
          "internalType": "address",
          "name": "doctorAddress",
          "type": "address"
        }
      ],
      "name": "getDoctorDetails",
      "outputs": [
        {
          "components": [
            {
              "components": [
                {
                  "internalType": "address",
                  "name": "addr",
                  "type": "address"
                },
                {
                  "internalType": "string",
                  "name": "IC",
                  "type": "string"
                },
                {
                  "internalType": "string",
                  "name": "name",
                  "type": "string"
                },
                {
                  "internalType": "string",
                  "name": "gender",
                  "type": "string"
                },
                {
                  "internalType": "string",
                  "name": "birthdate",
                  "type": "string"
                },
                {
                  "internalType": "string",
                  "name": "email",
                  "type": "string"
                },
                {
                  "internalType": "string",
                  "name": "homeAddress",
                  "type": "string"
                },
                {
                  "internalType": "string",
                  "name": "phone",
                  "type": "string"
                },
                {
                  "internalType": "uint256",
                  "name": "userSince",
                  "type": "uint256"
                }
              ],
              "internalType": "struct MainContract.User",
              "name": "primaryInfo",
              "type": "tuple"
            },
            {
              "internalType": "string",
              "name": "qualification",
              "type": "string"
            },
            {
              "internalType": "string",
              "name": "major",
              "type": "string"
            }
          ],
          "internalType": "struct MainContract.Doctor",
          "name": "",
          "type": "tuple"
        }
      ],
      "stateMutability": "view",
      "type": "function"
    },
    {
      "inputs": [
        {
          "internalType": "string",
          "name": "_encryptedID",
          "type": "string"
        },
        {
          "internalType": "string",
          "name": "_dataHash",
          "type": "string"
        },
        {
          "internalType": "address",
          "name": "_issuerDoctorAddr",
          "type": "address"
        },
        {
          "internalType": "address",
          "name": "_patientAddr",
          "type": "address"
        }
      ],
      "name": "createRecord",
      "outputs": [],
      "stateMutability": "nonpayable",
      "type": "function"
    },
    {
      "inputs": [
        {
          "internalType": "string",
          "name": "_encryptedID",
          "type": "string"
        }
      ],
      "name": "getRecordDetails",
      "outputs": [
        {
          "components": [
            {
              "internalType": "string",
              "name": "encryptedID",
              "type": "string"
            },
            {
              "internalType": "string",
              "name": "dataHash",
              "type": "string"
            },
            {
              "internalType": "address",
              "name": "issuerDoctorAddr",
              "type": "address"
            },
            {
              "internalType": "uint256",
              "name": "timestamp",
              "type": "uint256"
            },
            {
              "internalType": "enum MainContract.RecordStatus",
              "name": "recordStatus",
              "type": "uint8"
            }
          ],
          "internalType": "struct MainContract.Record",
          "name": "",
          "type": "tuple"
        }
      ],
      "stateMutability": "view",
      "type": "function"
    },
    {
      "inputs": [
        {
          "internalType": "string",
          "name": "_encryptedID",
          "type": "string"
        },
        {
          "internalType": "string",
          "name": "_dataHash",
          "type": "string"
        },
        {
          "internalType": "address",
          "name": "_issuerDoctorAddr",
          "type": "address"
        },
        {
          "internalType": "enum MainContract.RecordStatus",
          "name": "_recordStatus",
          "type": "uint8"
        }
      ],
      "name": "editRecord",
      "outputs": [],
      "stateMutability": "nonpayable",
      "type": "function"
    },
    {
      "inputs": [
        {
          "internalType": "string",
          "name": "_encryptedID",
          "type": "string"
        },
        {
          "internalType": "address",
          "name": "_patientAddress",
          "type": "address"
        }
      ],
      "name": "removeRecord",
      "outputs": [],
      "stateMutability": "nonpayable",
      "type": "function"
    }
  ],
  "bytecode": "0x608060405260008055600060015534801561001957600080fd5b50615d24806200002a6000396000f3fe608060405234801561001057600080fd5b506004361061010b5760003560e01c8063b6b8ba36116100a2578063deb5ef0911610071578063deb5ef09146102bb578063e4a6d0f0146102d9578063e6224df4146102f5578063efe2ccc114610327578063f40339a4146103575761010b565b8063b6b8ba361461021e578063b715962c1461023a578063bab90dbd14610256578063da2e626f146102865761010b565b80634fce2b68116100de5780634fce2b68146101ac57806365b44d7e146101c857806387927215146101e65780638e55966d146102025761010b565b80631a9e48f5146101105780631bc7a79a1461014057806322d0741b1461015c578063448259e814610178575b600080fd5b61012a60048036038101906101259190614bc3565b610373565b604051610137919061579a565b60405180910390f35b61015a60048036038101906101559190614d7e565b6105b6565b005b61017660048036038101906101719190614c58565b61095b565b005b610192600480360381019061018d9190614bc3565b610c34565b6040516101a3959493929190615686565b60405180910390f35b6101c660048036038101906101c19190614b87565b610dbd565b005b6101d0610f4b565b6040516101dd9190615893565b60405180910390f35b61020060048036038101906101fb9190614e15565b610f51565b005b61021c60048036038101906102179190614c04565b6114fd565b005b61023860048036038101906102339190614e15565b611922565b005b610254600480360381019061024f9190614d7e565b611f35565b005b610270600480360381019061026b9190614b5e565b612270565b60405161027d9190615756565b60405180910390f35b6102a0600480360381019061029b9190614b5e565b612860565b6040516102b296959493929190615808565b60405180910390f35b6102c3612fad565b6040516102d09190615893565b60405180910390f35b6102f360048036038101906102ee9190614ceb565b612fb3565b005b61030f600480360381019061030a9190614b5e565b613120565b60405161031e939291906157bc565b60405180910390f35b610341600480360381019061033c9190614b5e565b6136c3565b60405161034e9190615778565b60405180910390f35b610371600480360381019061036c9190614b87565b613fd1565b005b61037b614447565b60048260405161038b91906155ce565b90815260200160405180910390206040518060a00160405290816000820180546103b490615af2565b80601f01602080910402602001604051908101604052809291908181526020018280546103e090615af2565b801561042d5780601f106104025761010080835404028352916020019161042d565b820191906000526020600020905b81548152906001019060200180831161041057829003601f168201915b5050505050815260200160018201805461044690615af2565b80601f016020809104026020016040519081016040528092919081815260200182805461047290615af2565b80156104bf5780601f10610494576101008083540402835291602001916104bf565b820191906000526020600020905b8154815290600101906020018083116104a257829003601f168201915b505050505081526020016002820160009054906101000a900473ffffffffffffffffffffffffffffffffffffffff1673ffffffffffffffffffffffffffffffffffffffff1673ffffffffffffffffffffffffffffffffffffffff168152602001600382015481526020016004820160009054906101000a900460ff166002811115610573577f4e487b7100000000000000000000000000000000000000000000000000000000600052602160045260246000fd5b60028111156105ab577f4e487b7100000000000000000000000000000000000000000000000000000000600052602160045260246000fd5b815250509050919050565b600083600001519050600660008273ffffffffffffffffffffffffffffffffffffffff1673ffffffffffffffffffffffffffffffffffffffff16815260200190815260200160002060009054906101000a900460ff1661061557600080fd5b8360200151600360008373ffffffffffffffffffffffffffffffffffffffff1673ffffffffffffffffffffffffffffffffffffffff16815260200190815260200160002060000160010190805190602001906106729291906144c4565b508360400151600360008373ffffffffffffffffffffffffffffffffffffffff1673ffffffffffffffffffffffffffffffffffffffff16815260200190815260200160002060000160020190805190602001906106d09291906144c4565b508360600151600360008373ffffffffffffffffffffffffffffffffffffffff1673ffffffffffffffffffffffffffffffffffffffff168152602001908152602001600020600001600301908051906020019061072e9291906144c4565b508360800151600360008373ffffffffffffffffffffffffffffffffffffffff1673ffffffffffffffffffffffffffffffffffffffff168152602001908152602001600020600001600401908051906020019061078c9291906144c4565b508360a00151600360008373ffffffffffffffffffffffffffffffffffffffff1673ffffffffffffffffffffffffffffffffffffffff16815260200190815260200160002060000160050190805190602001906107ea9291906144c4565b508360c00151600360008373ffffffffffffffffffffffffffffffffffffffff1673ffffffffffffffffffffffffffffffffffffffff16815260200190815260200160002060000160060190805190602001906108489291906144c4565b508360e00151600360008373ffffffffffffffffffffffffffffffffffffffff1673ffffffffffffffffffffffffffffffffffffffff16815260200190815260200160002060000160070190805190602001906108a69291906144c4565b5082600360008373ffffffffffffffffffffffffffffffffffffffff1673ffffffffffffffffffffffffffffffffffffffff16815260200190815260200160002060090190805190602001906108fd9291906144c4565b5081600360008373ffffffffffffffffffffffffffffffffffffffff1673ffffffffffffffffffffffffffffffffffffffff168152602001908152602001600020600a0190805190602001906109549291906144c4565b5050505050565b600660008373ffffffffffffffffffffffffffffffffffffffff1673ffffffffffffffffffffffffffffffffffffffff16815260200190815260200160002060009054906101000a900460ff166109b157600080fd5b600560008273ffffffffffffffffffffffffffffffffffffffff1673ffffffffffffffffffffffffffffffffffffffff16815260200190815260200160002060009054906101000a900460ff16610a0757600080fd5b6000429050600085600487604051610a1f91906155ce565b90815260200160405180910390206000019080519060200190610a439291906144c4565b5084600487604051610a5591906155ce565b90815260200160405180910390206001019080519060200190610a799291906144c4565b5083600487604051610a8b91906155ce565b908152602001604051809103902060020160006101000a81548173ffffffffffffffffffffffffffffffffffffffff021916908373ffffffffffffffffffffffffffffffffffffffff16021790555081600487604051610aeb91906155ce565b90815260200160405180910390206003018190555080600487604051610b1191906155ce565b908152602001604051809103902060040160006101000a81548160ff02191690836002811115610b6a577f4e487b7100000000000000000000000000000000000000000000000000000000600052602160045260246000fd5b0217905550600260008473ffffffffffffffffffffffffffffffffffffffff1673ffffffffffffffffffffffffffffffffffffffff168152602001908152602001600020600f0186908060018154018082558091505060019003906000526020600020016000909190919091509080519060200190610bea9291906144c4565b507fa8f9b0e7d42327661d46e236a278fc31bd69ab6e6da45464ed9722bbb8503f09868686858588604051610c24969594939291906156e7565b60405180910390a1505050505050565b600481805160208101820180518482526020830160208501208183528095505050505050600091509050806000018054610c6d90615af2565b80601f0160208091040260200160405190810160405280929190818152602001828054610c9990615af2565b8015610ce65780601f10610cbb57610100808354040283529160200191610ce6565b820191906000526020600020905b815481529060010190602001808311610cc957829003601f168201915b505050505090806001018054610cfb90615af2565b80601f0160208091040260200160405190810160405280929190818152602001828054610d2790615af2565b8015610d745780601f10610d4957610100808354040283529160200191610d74565b820191906000526020600020905b815481529060010190602001808311610d5757829003601f168201915b5050505050908060020160009054906101000a900473ffffffffffffffffffffffffffffffffffffffff16908060030154908060040160009054906101000a900460ff16905085565b600660008373ffffffffffffffffffffffffffffffffffffffff1673ffffffffffffffffffffffffffffffffffffffff16815260200190815260200160002060009054906101000a900460ff16610e1357600080fd5b600560008273ffffffffffffffffffffffffffffffffffffffff1673ffffffffffffffffffffffffffffffffffffffff16815260200190815260200160002060009054906101000a900460ff16610e6957600080fd5b600260008273ffffffffffffffffffffffffffffffffffffffff1673ffffffffffffffffffffffffffffffffffffffff168152602001908152602001600020600e01829080600181540180825580915050600190039060005260206000200160009091909190916101000a81548173ffffffffffffffffffffffffffffffffffffffff021916908373ffffffffffffffffffffffffffffffffffffffff1602179055507fa58fd95ad438335ebea70c43acd7ba96835900dab734d4444ebcd10b286c8bd1828242604051610f3f939291906155fc565b60405180910390a15050565b60015481565b600088600001519050600560008a6000015173ffffffffffffffffffffffffffffffffffffffff1673ffffffffffffffffffffffffffffffffffffffff16815260200190815260200160002060009054906101000a900460ff1615610fb557600080fd5b6001600560008373ffffffffffffffffffffffffffffffffffffffff1673ffffffffffffffffffffffffffffffffffffffff16815260200190815260200160002060006101000a81548160ff0219169083151502179055506000896101000151905089600260008473ffffffffffffffffffffffffffffffffffffffff1673ffffffffffffffffffffffffffffffffffffffff16815260200190815260200160002060000160008201518160000160006101000a81548173ffffffffffffffffffffffffffffffffffffffff021916908373ffffffffffffffffffffffffffffffffffffffff16021790555060208201518160010190805190602001906110bd9291906144c4565b5060408201518160020190805190602001906110da9291906144c4565b5060608201518160030190805190602001906110f79291906144c4565b5060808201518160040190805190602001906111149291906144c4565b5060a08201518160050190805190602001906111319291906144c4565b5060c082015181600601908051906020019061114e9291906144c4565b5060e082015181600701908051906020019061116b9291906144c4565b50610100820151816008015590505088600260008473ffffffffffffffffffffffffffffffffffffffff1673ffffffffffffffffffffffffffffffffffffffff16815260200190815260200160002060090190805190602001906111d09291906144c4565b5087600260008473ffffffffffffffffffffffffffffffffffffffff1673ffffffffffffffffffffffffffffffffffffffff168152602001908152602001600020600a0190805190602001906112279291906144c4565b5086600260008473ffffffffffffffffffffffffffffffffffffffff1673ffffffffffffffffffffffffffffffffffffffff168152602001908152602001600020600b01908051906020019061127e9291906144c4565b5085600260008473ffffffffffffffffffffffffffffffffffffffff1673ffffffffffffffffffffffffffffffffffffffff168152602001908152602001600020600c0190805190602001906112d59291906144c4565b5084600260008473ffffffffffffffffffffffffffffffffffffffff1673ffffffffffffffffffffffffffffffffffffffff168152602001908152602001600020600d01908051906020019061132c9291906144c4565b5060005b84518110156113e25760066000868381518110611376577f4e487b7100000000000000000000000000000000000000000000000000000000600052603260045260246000fd5b602002602001015173ffffffffffffffffffffffffffffffffffffffff1673ffffffffffffffffffffffffffffffffffffffff16815260200190815260200160002060009054906101000a900460ff166113cf57600080fd5b80806113da90615b55565b915050611330565b5083600260008473ffffffffffffffffffffffffffffffffffffffff1673ffffffffffffffffffffffffffffffffffffffff168152602001908152602001600020600e01908051906020019061143992919061454a565b5082600260008473ffffffffffffffffffffffffffffffffffffffff1673ffffffffffffffffffffffffffffffffffffffff168152602001908152602001600020600f0190805190602001906114909291906145d4565b506000808154809291906114a390615b55565b91905055507f88a4b268a245c7e81b8962a18a5abe198a80bfa3d1ea8dd32a9e468ed97f265b8a600001518b604001518c60200151846040516114e99493929190615633565b60405180910390a150505050505050505050565b600560008273ffffffffffffffffffffffffffffffffffffffff1673ffffffffffffffffffffffffffffffffffffffff16815260200190815260200160002060009054906101000a900460ff1661155357600080fd5b60048260405161156391906155ce565b9081526020016040518091039020600080820160006115829190614634565b6001820160006115929190614634565b6002820160006101000a81549073ffffffffffffffffffffffffffffffffffffffff021916905560038201600090556004820160006101000a81549060ff0219169055505060005b600260008373ffffffffffffffffffffffffffffffffffffffff1673ffffffffffffffffffffffffffffffffffffffff168152602001908152602001600020600f018054905081101561191d578260405160200161163891906155ce565b60405160208183030381529060405280519060200120600260008473ffffffffffffffffffffffffffffffffffffffff1673ffffffffffffffffffffffffffffffffffffffff168152602001908152602001600020600f0182815481106116c8577f4e487b7100000000000000000000000000000000000000000000000000000000600052603260045260246000fd5b906000526020600020016040516020016116e291906155e5565b60405160208183030381529060405280519060200120141561190a57600260008373ffffffffffffffffffffffffffffffffffffffff1673ffffffffffffffffffffffffffffffffffffffff168152602001908152602001600020600f016001600260008573ffffffffffffffffffffffffffffffffffffffff1673ffffffffffffffffffffffffffffffffffffffff168152602001908152602001600020600f01805490506117929190615a1b565b815481106117c9577f4e487b7100000000000000000000000000000000000000000000000000000000600052603260045260246000fd5b90600052602060002001600260008473ffffffffffffffffffffffffffffffffffffffff1673ffffffffffffffffffffffffffffffffffffffff168152602001908152602001600020600f01828154811061184d577f4e487b7100000000000000000000000000000000000000000000000000000000600052603260045260246000fd5b9060005260206000200190805461186390615af2565b61186e929190614674565b50600260008373ffffffffffffffffffffffffffffffffffffffff1673ffffffffffffffffffffffffffffffffffffffff168152602001908152602001600020600f018054806118e7577f4e487b7100000000000000000000000000000000000000000000000000000000600052603160045260246000fd5b6001900381819060005260206000200160006119039190614634565b905561191d565b808061191590615b55565b9150506115da565b505050565b600088600001519050600560008273ffffffffffffffffffffffffffffffffffffffff1673ffffffffffffffffffffffffffffffffffffffff16815260200190815260200160002060009054906101000a900460ff1661198157600080fd5b8860200151600260008373ffffffffffffffffffffffffffffffffffffffff1673ffffffffffffffffffffffffffffffffffffffff16815260200190815260200160002060000160010190805190602001906119de9291906144c4565b508860400151600260008373ffffffffffffffffffffffffffffffffffffffff1673ffffffffffffffffffffffffffffffffffffffff1681526020019081526020016000206000016002019080519060200190611a3c9291906144c4565b508860600151600260008373ffffffffffffffffffffffffffffffffffffffff1673ffffffffffffffffffffffffffffffffffffffff1681526020019081526020016000206000016003019080519060200190611a9a9291906144c4565b508860800151600260008373ffffffffffffffffffffffffffffffffffffffff1673ffffffffffffffffffffffffffffffffffffffff1681526020019081526020016000206000016004019080519060200190611af89291906144c4565b508860a00151600260008373ffffffffffffffffffffffffffffffffffffffff1673ffffffffffffffffffffffffffffffffffffffff1681526020019081526020016000206000016005019080519060200190611b569291906144c4565b508860c00151600260008373ffffffffffffffffffffffffffffffffffffffff1673ffffffffffffffffffffffffffffffffffffffff1681526020019081526020016000206000016006019080519060200190611bb49291906144c4565b508860e00151600260008373ffffffffffffffffffffffffffffffffffffffff1673ffffffffffffffffffffffffffffffffffffffff1681526020019081526020016000206000016007019080519060200190611c129291906144c4565b5087600260008373ffffffffffffffffffffffffffffffffffffffff1673ffffffffffffffffffffffffffffffffffffffff1681526020019081526020016000206009019080519060200190611c699291906144c4565b5086600260008373ffffffffffffffffffffffffffffffffffffffff1673ffffffffffffffffffffffffffffffffffffffff168152602001908152602001600020600a019080519060200190611cc09291906144c4565b5085600260008373ffffffffffffffffffffffffffffffffffffffff1673ffffffffffffffffffffffffffffffffffffffff168152602001908152602001600020600b019080519060200190611d179291906144c4565b5084600260008373ffffffffffffffffffffffffffffffffffffffff1673ffffffffffffffffffffffffffffffffffffffff168152602001908152602001600020600c019080519060200190611d6e9291906144c4565b5083600260008373ffffffffffffffffffffffffffffffffffffffff1673ffffffffffffffffffffffffffffffffffffffff168152602001908152602001600020600d019080519060200190611dc59291906144c4565b5060005b8351811015611e7b5760066000858381518110611e0f577f4e487b7100000000000000000000000000000000000000000000000000000000600052603260045260246000fd5b602002602001015173ffffffffffffffffffffffffffffffffffffffff1673ffffffffffffffffffffffffffffffffffffffff16815260200190815260200160002060009054906101000a900460ff16611e6857600080fd5b8080611e7390615b55565b915050611dc9565b5082600260008373ffffffffffffffffffffffffffffffffffffffff1673ffffffffffffffffffffffffffffffffffffffff168152602001908152602001600020600e019080519060200190611ed292919061454a565b5081600260008373ffffffffffffffffffffffffffffffffffffffff1673ffffffffffffffffffffffffffffffffffffffff168152602001908152602001600020600f019080519060200190611f299291906145d4565b50505050505050505050565b600083600001519050600660008273ffffffffffffffffffffffffffffffffffffffff1673ffffffffffffffffffffffffffffffffffffffff16815260200190815260200160002060009054906101000a900460ff1615611f9557600080fd5b6001600660008373ffffffffffffffffffffffffffffffffffffffff1673ffffffffffffffffffffffffffffffffffffffff16815260200190815260200160002060006101000a81548160ff0219169083151502179055506000846101000151905084600360008473ffffffffffffffffffffffffffffffffffffffff1673ffffffffffffffffffffffffffffffffffffffff16815260200190815260200160002060000160008201518160000160006101000a81548173ffffffffffffffffffffffffffffffffffffffff021916908373ffffffffffffffffffffffffffffffffffffffff160217905550602082015181600101908051906020019061209d9291906144c4565b5060408201518160020190805190602001906120ba9291906144c4565b5060608201518160030190805190602001906120d79291906144c4565b5060808201518160040190805190602001906120f49291906144c4565b5060a08201518160050190805190602001906121119291906144c4565b5060c082015181600601908051906020019061212e9291906144c4565b5060e082015181600701908051906020019061214b9291906144c4565b50610100820151816008015590505083600360008473ffffffffffffffffffffffffffffffffffffffff1673ffffffffffffffffffffffffffffffffffffffff16815260200190815260200160002060090190805190602001906121b09291906144c4565b5082600360008473ffffffffffffffffffffffffffffffffffffffff1673ffffffffffffffffffffffffffffffffffffffff168152602001908152602001600020600a0190805190602001906122079291906144c4565b506001600081548092919061221b90615b55565b91905055507f87c5c024b616aed507b1cd9756c0594f4efc94d637550067d61b2293d03a6ea9856000015186604001518760200151846040516122619493929190615633565b60405180910390a15050505050565b612278614701565b600360008373ffffffffffffffffffffffffffffffffffffffff1673ffffffffffffffffffffffffffffffffffffffff16815260200190815260200160002060405180606001604052908160008201604051806101200160405290816000820160009054906101000a900473ffffffffffffffffffffffffffffffffffffffff1673ffffffffffffffffffffffffffffffffffffffff1673ffffffffffffffffffffffffffffffffffffffff16815260200160018201805461233990615af2565b80601f016020809104026020016040519081016040528092919081815260200182805461236590615af2565b80156123b25780601f10612387576101008083540402835291602001916123b2565b820191906000526020600020905b81548152906001019060200180831161239557829003601f168201915b505050505081526020016002820180546123cb90615af2565b80601f01602080910402602001604051908101604052809291908181526020018280546123f790615af2565b80156124445780601f1061241957610100808354040283529160200191612444565b820191906000526020600020905b81548152906001019060200180831161242757829003601f168201915b5050505050815260200160038201805461245d90615af2565b80601f016020809104026020016040519081016040528092919081815260200182805461248990615af2565b80156124d65780601f106124ab576101008083540402835291602001916124d6565b820191906000526020600020905b8154815290600101906020018083116124b957829003601f168201915b505050505081526020016004820180546124ef90615af2565b80601f016020809104026020016040519081016040528092919081815260200182805461251b90615af2565b80156125685780601f1061253d57610100808354040283529160200191612568565b820191906000526020600020905b81548152906001019060200180831161254b57829003601f168201915b5050505050815260200160058201805461258190615af2565b80601f01602080910402602001604051908101604052809291908181526020018280546125ad90615af2565b80156125fa5780601f106125cf576101008083540402835291602001916125fa565b820191906000526020600020905b8154815290600101906020018083116125dd57829003601f168201915b5050505050815260200160068201805461261390615af2565b80601f016020809104026020016040519081016040528092919081815260200182805461263f90615af2565b801561268c5780601f106126615761010080835404028352916020019161268c565b820191906000526020600020905b81548152906001019060200180831161266f57829003601f168201915b505050505081526020016007820180546126a590615af2565b80601f01602080910402602001604051908101604052809291908181526020018280546126d190615af2565b801561271e5780601f106126f35761010080835404028352916020019161271e565b820191906000526020600020905b81548152906001019060200180831161270157829003601f168201915b50505050508152602001600882015481525050815260200160098201805461274590615af2565b80601f016020809104026020016040519081016040528092919081815260200182805461277190615af2565b80156127be5780601f10612793576101008083540402835291602001916127be565b820191906000526020600020905b8154815290600101906020018083116127a157829003601f168201915b50505050508152602001600a820180546127d790615af2565b80601f016020809104026020016040519081016040528092919081815260200182805461280390615af2565b80156128505780601f1061282557610100808354040283529160200191612850565b820191906000526020600020905b81548152906001019060200180831161283357829003601f168201915b5050505050815250509050919050565b600260205280600052604060002060009150905080600001604051806101200160405290816000820160009054906101000a900473ffffffffffffffffffffffffffffffffffffffff1673ffffffffffffffffffffffffffffffffffffffff1673ffffffffffffffffffffffffffffffffffffffff1681526020016001820180546128ea90615af2565b80601f016020809104026020016040519081016040528092919081815260200182805461291690615af2565b80156129635780601f1061293857610100808354040283529160200191612963565b820191906000526020600020905b81548152906001019060200180831161294657829003601f168201915b5050505050815260200160028201805461297c90615af2565b80601f01602080910402602001604051908101604052809291908181526020018280546129a890615af2565b80156129f55780601f106129ca576101008083540402835291602001916129f5565b820191906000526020600020905b8154815290600101906020018083116129d857829003601f168201915b50505050508152602001600382018054612a0e90615af2565b80601f0160208091040260200160405190810160405280929190818152602001828054612a3a90615af2565b8015612a875780601f10612a5c57610100808354040283529160200191612a87565b820191906000526020600020905b815481529060010190602001808311612a6a57829003601f168201915b50505050508152602001600482018054612aa090615af2565b80601f0160208091040260200160405190810160405280929190818152602001828054612acc90615af2565b8015612b195780601f10612aee57610100808354040283529160200191612b19565b820191906000526020600020905b815481529060010190602001808311612afc57829003601f168201915b50505050508152602001600582018054612b3290615af2565b80601f0160208091040260200160405190810160405280929190818152602001828054612b5e90615af2565b8015612bab5780601f10612b8057610100808354040283529160200191612bab565b820191906000526020600020905b815481529060010190602001808311612b8e57829003601f168201915b50505050508152602001600682018054612bc490615af2565b80601f0160208091040260200160405190810160405280929190818152602001828054612bf090615af2565b8015612c3d5780601f10612c1257610100808354040283529160200191612c3d565b820191906000526020600020905b815481529060010190602001808311612c2057829003601f168201915b50505050508152602001600782018054612c5690615af2565b80601f0160208091040260200160405190810160405280929190818152602001828054612c8290615af2565b8015612ccf5780601f10612ca457610100808354040283529160200191612ccf565b820191906000526020600020905b815481529060010190602001808311612cb257829003601f168201915b5050505050815260200160088201548152505090806009018054612cf290615af2565b80601f0160208091040260200160405190810160405280929190818152602001828054612d1e90615af2565b8015612d6b5780601f10612d4057610100808354040283529160200191612d6b565b820191906000526020600020905b815481529060010190602001808311612d4e57829003601f168201915b50505050509080600a018054612d8090615af2565b80601f0160208091040260200160405190810160405280929190818152602001828054612dac90615af2565b8015612df95780601f10612dce57610100808354040283529160200191612df9565b820191906000526020600020905b815481529060010190602001808311612ddc57829003601f168201915b50505050509080600b018054612e0e90615af2565b80601f0160208091040260200160405190810160405280929190818152602001828054612e3a90615af2565b8015612e875780601f10612e5c57610100808354040283529160200191612e87565b820191906000526020600020905b815481529060010190602001808311612e6a57829003601f168201915b50505050509080600c018054612e9c90615af2565b80601f0160208091040260200160405190810160405280929190818152602001828054612ec890615af2565b8015612f155780601f10612eea57610100808354040283529160200191612f15565b820191906000526020600020905b815481529060010190602001808311612ef857829003601f168201915b50505050509080600d018054612f2a90615af2565b80601f0160208091040260200160405190810160405280929190818152602001828054612f5690615af2565b8015612fa35780601f10612f7857610100808354040283529160200191612fa3565b820191906000526020600020905b815481529060010190602001808311612f8657829003601f168201915b5050505050905086565b60005481565b600042905084600486604051612fc991906155ce565b90815260200160405180910390206000019080519060200190612fed9291906144c4565b5083600486604051612fff91906155ce565b908152602001604051809103902060010190805190602001906130239291906144c4565b508260048660405161303591906155ce565b908152602001604051809103902060020160006101000a81548173ffffffffffffffffffffffffffffffffffffffff021916908373ffffffffffffffffffffffffffffffffffffffff1602179055508060048660405161309591906155ce565b908152602001604051809103902060030181905550816004866040516130bb91906155ce565b908152602001604051809103902060040160006101000a81548160ff02191690836002811115613114577f4e487b7100000000000000000000000000000000000000000000000000000000600052602160045260246000fd5b02179055505050505050565b600360205280600052604060002060009150905080600001604051806101200160405290816000820160009054906101000a900473ffffffffffffffffffffffffffffffffffffffff1673ffffffffffffffffffffffffffffffffffffffff1673ffffffffffffffffffffffffffffffffffffffff1681526020016001820180546131aa90615af2565b80601f01602080910402602001604051908101604052809291908181526020018280546131d690615af2565b80156132235780601f106131f857610100808354040283529160200191613223565b820191906000526020600020905b81548152906001019060200180831161320657829003601f168201915b5050505050815260200160028201805461323c90615af2565b80601f016020809104026020016040519081016040528092919081815260200182805461326890615af2565b80156132b55780601f1061328a576101008083540402835291602001916132b5565b820191906000526020600020905b81548152906001019060200180831161329857829003601f168201915b505050505081526020016003820180546132ce90615af2565b80601f01602080910402602001604051908101604052809291908181526020018280546132fa90615af2565b80156133475780601f1061331c57610100808354040283529160200191613347565b820191906000526020600020905b81548152906001019060200180831161332a57829003601f168201915b5050505050815260200160048201805461336090615af2565b80601f016020809104026020016040519081016040528092919081815260200182805461338c90615af2565b80156133d95780601f106133ae576101008083540402835291602001916133d9565b820191906000526020600020905b8154815290600101906020018083116133bc57829003601f168201915b505050505081526020016005820180546133f290615af2565b80601f016020809104026020016040519081016040528092919081815260200182805461341e90615af2565b801561346b5780601f106134405761010080835404028352916020019161346b565b820191906000526020600020905b81548152906001019060200180831161344e57829003601f168201915b5050505050815260200160068201805461348490615af2565b80601f01602080910402602001604051908101604052809291908181526020018280546134b090615af2565b80156134fd5780601f106134d2576101008083540402835291602001916134fd565b820191906000526020600020905b8154815290600101906020018083116134e057829003601f168201915b5050505050815260200160078201805461351690615af2565b80601f016020809104026020016040519081016040528092919081815260200182805461354290615af2565b801561358f5780601f106135645761010080835404028352916020019161358f565b820191906000526020600020905b81548152906001019060200180831161357257829003601f168201915b50505050508152602001600882015481525050908060090180546135b290615af2565b80601f01602080910402602001604051908101604052809291908181526020018280546135de90615af2565b801561362b5780601f106136005761010080835404028352916020019161362b565b820191906000526020600020905b81548152906001019060200180831161360e57829003601f168201915b50505050509080600a01805461364090615af2565b80601f016020809104026020016040519081016040528092919081815260200182805461366c90615af2565b80156136b95780601f1061368e576101008083540402835291602001916136b9565b820191906000526020600020905b81548152906001019060200180831161369c57829003601f168201915b5050505050905083565b6136cb614728565b600260008373ffffffffffffffffffffffffffffffffffffffff1673ffffffffffffffffffffffffffffffffffffffff1681526020019081526020016000206040518061010001604052908160008201604051806101200160405290816000820160009054906101000a900473ffffffffffffffffffffffffffffffffffffffff1673ffffffffffffffffffffffffffffffffffffffff1673ffffffffffffffffffffffffffffffffffffffff16815260200160018201805461378d90615af2565b80601f01602080910402602001604051908101604052809291908181526020018280546137b990615af2565b80156138065780601f106137db57610100808354040283529160200191613806565b820191906000526020600020905b8154815290600101906020018083116137e957829003601f168201915b5050505050815260200160028201805461381f90615af2565b80601f016020809104026020016040519081016040528092919081815260200182805461384b90615af2565b80156138985780601f1061386d57610100808354040283529160200191613898565b820191906000526020600020905b81548152906001019060200180831161387b57829003601f168201915b505050505081526020016003820180546138b190615af2565b80601f01602080910402602001604051908101604052809291908181526020018280546138dd90615af2565b801561392a5780601f106138ff5761010080835404028352916020019161392a565b820191906000526020600020905b81548152906001019060200180831161390d57829003601f168201915b5050505050815260200160048201805461394390615af2565b80601f016020809104026020016040519081016040528092919081815260200182805461396f90615af2565b80156139bc5780601f10613991576101008083540402835291602001916139bc565b820191906000526020600020905b81548152906001019060200180831161399f57829003601f168201915b505050505081526020016005820180546139d590615af2565b80601f0160208091040260200160405190810160405280929190818152602001828054613a0190615af2565b8015613a4e5780601f10613a2357610100808354040283529160200191613a4e565b820191906000526020600020905b815481529060010190602001808311613a3157829003601f168201915b50505050508152602001600682018054613a6790615af2565b80601f0160208091040260200160405190810160405280929190818152602001828054613a9390615af2565b8015613ae05780601f10613ab557610100808354040283529160200191613ae0565b820191906000526020600020905b815481529060010190602001808311613ac357829003601f168201915b50505050508152602001600782018054613af990615af2565b80601f0160208091040260200160405190810160405280929190818152602001828054613b2590615af2565b8015613b725780601f10613b4757610100808354040283529160200191613b72565b820191906000526020600020905b815481529060010190602001808311613b5557829003601f168201915b505050505081526020016008820154815250508152602001600982018054613b9990615af2565b80601f0160208091040260200160405190810160405280929190818152602001828054613bc590615af2565b8015613c125780601f10613be757610100808354040283529160200191613c12565b820191906000526020600020905b815481529060010190602001808311613bf557829003601f168201915b50505050508152602001600a82018054613c2b90615af2565b80601f0160208091040260200160405190810160405280929190818152602001828054613c5790615af2565b8015613ca45780601f10613c7957610100808354040283529160200191613ca4565b820191906000526020600020905b815481529060010190602001808311613c8757829003601f168201915b50505050508152602001600b82018054613cbd90615af2565b80601f0160208091040260200160405190810160405280929190818152602001828054613ce990615af2565b8015613d365780601f10613d0b57610100808354040283529160200191613d36565b820191906000526020600020905b815481529060010190602001808311613d1957829003601f168201915b50505050508152602001600c82018054613d4f90615af2565b80601f0160208091040260200160405190810160405280929190818152602001828054613d7b90615af2565b8015613dc85780601f10613d9d57610100808354040283529160200191613dc8565b820191906000526020600020905b815481529060010190602001808311613dab57829003601f168201915b50505050508152602001600d82018054613de190615af2565b80601f0160208091040260200160405190810160405280929190818152602001828054613e0d90615af2565b8015613e5a5780601f10613e2f57610100808354040283529160200191613e5a565b820191906000526020600020905b815481529060010190602001808311613e3d57829003601f168201915b50505050508152602001600e8201805480602002602001604051908101604052809291908181526020018280548015613ee857602002820191906000526020600020905b8160009054906101000a900473ffffffffffffffffffffffffffffffffffffffff1673ffffffffffffffffffffffffffffffffffffffff1681526020019060010190808311613e9e575b50505050508152602001600f8201805480602002602001604051908101604052809291908181526020016000905b82821015613fc2578382906000526020600020018054613f3590615af2565b80601f0160208091040260200160405190810160405280929190818152602001828054613f6190615af2565b8015613fae5780601f10613f8357610100808354040283529160200191613fae565b820191906000526020600020905b815481529060010190602001808311613f9157829003601f168201915b505050505081526020019060010190613f16565b50505050815250509050919050565b600660008373ffffffffffffffffffffffffffffffffffffffff1673ffffffffffffffffffffffffffffffffffffffff16815260200190815260200160002060009054906101000a900460ff1661402757600080fd5b600560008273ffffffffffffffffffffffffffffffffffffffff1673ffffffffffffffffffffffffffffffffffffffff16815260200190815260200160002060009054906101000a900460ff1661407d57600080fd5b60005b600260008373ffffffffffffffffffffffffffffffffffffffff1673ffffffffffffffffffffffffffffffffffffffff168152602001908152602001600020600e018054905081101561444257826040516020016140de91906155b3565b60405160208183030381529060405280519060200120600260008473ffffffffffffffffffffffffffffffffffffffff1673ffffffffffffffffffffffffffffffffffffffff168152602001908152602001600020600e01828154811061416e577f4e487b7100000000000000000000000000000000000000000000000000000000600052603260045260246000fd5b9060005260206000200160009054906101000a900473ffffffffffffffffffffffffffffffffffffffff166040516020016141a991906155b3565b60405160208183030381529060405280519060200120141561442f57600260008373ffffffffffffffffffffffffffffffffffffffff1673ffffffffffffffffffffffffffffffffffffffff168152602001908152602001600020600e016001600260008573ffffffffffffffffffffffffffffffffffffffff1673ffffffffffffffffffffffffffffffffffffffff168152602001908152602001600020600e01805490506142599190615a1b565b81548110614290577f4e487b7100000000000000000000000000000000000000000000000000000000600052603260045260246000fd5b9060005260206000200160009054906101000a900473ffffffffffffffffffffffffffffffffffffffff16600260008473ffffffffffffffffffffffffffffffffffffffff1673ffffffffffffffffffffffffffffffffffffffff168152602001908152602001600020600e018281548110614335577f4e487b7100000000000000000000000000000000000000000000000000000000600052603260045260246000fd5b9060005260206000200160006101000a81548173ffffffffffffffffffffffffffffffffffffffff021916908373ffffffffffffffffffffffffffffffffffffffff160217905550600260008373ffffffffffffffffffffffffffffffffffffffff1673ffffffffffffffffffffffffffffffffffffffff168152602001908152602001600020600e018054806143f5577f4e487b7100000000000000000000000000000000000000000000000000000000600052603160045260246000fd5b6001900381819060005260206000200160006101000a81549073ffffffffffffffffffffffffffffffffffffffff02191690559055614442565b808061443a90615b55565b915050614080565b505050565b6040518060a001604052806060815260200160608152602001600073ffffffffffffffffffffffffffffffffffffffff16815260200160008152602001600060028111156144be577f4e487b7100000000000000000000000000000000000000000000000000000000600052602160045260246000fd5b81525090565b8280546144d090615af2565b90600052602060002090601f0160209004810192826144f25760008555614539565b82601f1061450b57805160ff1916838001178555614539565b82800160010185558215614539579182015b8281111561453857825182559160200191906001019061451d565b5b5090506145469190614773565b5090565b8280548282559060005260206000209081019282156145c3579160200282015b828111156145c25782518260006101000a81548173ffffffffffffffffffffffffffffffffffffffff021916908373ffffffffffffffffffffffffffffffffffffffff1602179055509160200191906001019061456a565b5b5090506145d09190614773565b5090565b828054828255906000526020600020908101928215614623579160200282015b828111156146225782518290805190602001906146129291906144c4565b50916020019190600101906145f4565b5b5090506146309190614790565b5090565b50805461464090615af2565b6000825580601f106146525750614671565b601f0160209004906000526020600020908101906146709190614773565b5b50565b82805461468090615af2565b90600052602060002090601f0160209004810192826146a257600085556146f0565b82601f106146b357805485556146f0565b828001600101855582156146f057600052602060002091601f016020900482015b828111156146ef5782548255916001019190600101906146d4565b5b5090506146fd9190614773565b5090565b60405180606001604052806147146147b4565b815260200160608152602001606081525090565b60405180610100016040528061473c6147b4565b8152602001606081526020016060815260200160608152602001606081526020016060815260200160608152602001606081525090565b5b8082111561478c576000816000905550600101614774565b5090565b5b808211156147b057600081816147a79190614634565b50600101614791565b5090565b604051806101200160405280600073ffffffffffffffffffffffffffffffffffffffff16815260200160608152602001606081526020016060815260200160608152602001606081526020016060815260200160608152602001600081525090565b6000614829614824846158d3565b6158ae565b9050808382526020820190508285602086028201111561484857600080fd5b60005b85811015614878578161485e888261491d565b84526020840193506020830192505060018101905061484b565b5050509392505050565b6000614895614890846158ff565b6158ae565b9050808382526020820190508260005b858110156148d557813585016148bb888261499b565b8452602084019350602083019250506001810190506148a5565b5050509392505050565b60006148f26148ed8461592b565b6158ae565b90508281526020810184848401111561490a57600080fd5b614915848285615ab0565b509392505050565b60008135905061492c81615cb0565b92915050565b600082601f83011261494357600080fd5b8135614953848260208601614816565b91505092915050565b600082601f83011261496d57600080fd5b813561497d848260208601614882565b91505092915050565b60008135905061499581615cc7565b92915050565b600082601f8301126149ac57600080fd5b81356149bc8482602086016148df565b91505092915050565b600061012082840312156149d857600080fd5b6149e36101206158ae565b905060006149f38482850161491d565b600083015250602082013567ffffffffffffffff811115614a1357600080fd5b614a1f8482850161499b565b602083015250604082013567ffffffffffffffff811115614a3f57600080fd5b614a4b8482850161499b565b604083015250606082013567ffffffffffffffff811115614a6b57600080fd5b614a778482850161499b565b606083015250608082013567ffffffffffffffff811115614a9757600080fd5b614aa38482850161499b565b60808301525060a082013567ffffffffffffffff811115614ac357600080fd5b614acf8482850161499b565b60a08301525060c082013567ffffffffffffffff811115614aef57600080fd5b614afb8482850161499b565b60c08301525060e082013567ffffffffffffffff811115614b1b57600080fd5b614b278482850161499b565b60e083015250610100614b3c84828501614b49565b6101008301525092915050565b600081359050614b5881615cd7565b92915050565b600060208284031215614b7057600080fd5b6000614b7e8482850161491d565b91505092915050565b60008060408385031215614b9a57600080fd5b6000614ba88582860161491d565b9250506020614bb98582860161491d565b9150509250929050565b600060208284031215614bd557600080fd5b600082013567ffffffffffffffff811115614bef57600080fd5b614bfb8482850161499b565b91505092915050565b60008060408385031215614c1757600080fd5b600083013567ffffffffffffffff811115614c3157600080fd5b614c3d8582860161499b565b9250506020614c4e8582860161491d565b9150509250929050565b60008060008060808587031215614c6e57600080fd5b600085013567ffffffffffffffff811115614c8857600080fd5b614c948782880161499b565b945050602085013567ffffffffffffffff811115614cb157600080fd5b614cbd8782880161499b565b9350506040614cce8782880161491d565b9250506060614cdf8782880161491d565b91505092959194509250565b60008060008060808587031215614d0157600080fd5b600085013567ffffffffffffffff811115614d1b57600080fd5b614d278782880161499b565b945050602085013567ffffffffffffffff811115614d4457600080fd5b614d508782880161499b565b9350506040614d618782880161491d565b9250506060614d7287828801614986565b91505092959194509250565b600080600060608486031215614d9357600080fd5b600084013567ffffffffffffffff811115614dad57600080fd5b614db9868287016149c5565b935050602084013567ffffffffffffffff811115614dd657600080fd5b614de28682870161499b565b925050604084013567ffffffffffffffff811115614dff57600080fd5b614e0b8682870161499b565b9150509250925092565b600080600080600080600080610100898b031215614e3257600080fd5b600089013567ffffffffffffffff811115614e4c57600080fd5b614e588b828c016149c5565b985050602089013567ffffffffffffffff811115614e7557600080fd5b614e818b828c0161499b565b975050604089013567ffffffffffffffff811115614e9e57600080fd5b614eaa8b828c0161499b565b965050606089013567ffffffffffffffff811115614ec757600080fd5b614ed38b828c0161499b565b955050608089013567ffffffffffffffff811115614ef057600080fd5b614efc8b828c0161499b565b94505060a089013567ffffffffffffffff811115614f1957600080fd5b614f258b828c0161499b565b93505060c089013567ffffffffffffffff811115614f4257600080fd5b614f4e8b828c01614932565b92505060e089013567ffffffffffffffff811115614f6b57600080fd5b614f778b828c0161495c565b9150509295985092959890939650565b6000614f938383614fb3565b60208301905092915050565b6000614fab83836150d9565b905092915050565b614fbc81615a4f565b82525050565b614fcb81615a4f565b82525050565b614fe2614fdd82615a4f565b615b9e565b82525050565b6000614ff382615991565b614ffd81856159cc565b93506150088361595c565b8060005b838110156150395781516150208882614f87565b975061502b836159b2565b92505060018101905061500c565b5085935050505092915050565b60006150518261599c565b61505b81856159dd565b93508360208202850161506d8561596c565b8060005b858110156150a9578484038952815161508a8582614f9f565b9450615095836159bf565b925060208a01995050600181019050615071565b50829750879550505050505092915050565b6150c481615a9e565b82525050565b6150d381615a9e565b82525050565b60006150e4826159a7565b6150ee81856159ee565b93506150fe818560208601615abf565b61510781615c7e565b840191505092915050565b600061511d826159a7565b61512781856159ff565b9350615137818560208601615abf565b61514081615c7e565b840191505092915050565b6000615156826159a7565b6151608185615a10565b9350615170818560208601615abf565b80840191505092915050565b6000815461518981615af2565b6151938186615a10565b945060018216600081146151ae57600181146151bf576151f2565b60ff198316865281860193506151f2565b6151c88561597c565b60005b838110156151ea578154818901526001820191506020810190506151cb565b838801955050505b50505092915050565b6000606083016000830151848203600086015261521882826153b7565b9150506020830151848203602086015261523282826150d9565b9150506040830151848203604086015261524c82826150d9565b9150508091505092915050565b600061010083016000830151848203600086015261527782826153b7565b9150506020830151848203602086015261529182826150d9565b915050604083015184820360408601526152ab82826150d9565b915050606083015184820360608601526152c582826150d9565b915050608083015184820360808601526152df82826150d9565b91505060a083015184820360a08601526152f982826150d9565b91505060c083015184820360c08601526153138282614fe8565b91505060e083015184820360e086015261532d8282615046565b9150508091505092915050565b600060a083016000830151848203600086015261535782826150d9565b9150506020830151848203602086015261537182826150d9565b91505060408301516153866040860182614fb3565b5060608301516153996060860182615595565b5060808301516153ac60808601826150bb565b508091505092915050565b6000610120830160008301516153d06000860182614fb3565b50602083015184820360208601526153e882826150d9565b9150506040830151848203604086015261540282826150d9565b9150506060830151848203606086015261541c82826150d9565b9150506080830151848203608086015261543682826150d9565b91505060a083015184820360a086015261545082826150d9565b91505060c083015184820360c086015261546a82826150d9565b91505060e083015184820360e086015261548482826150d9565b91505061010083015161549b610100860182615595565b508091505092915050565b6000610120830160008301516154bf6000860182614fb3565b50602083015184820360208601526154d782826150d9565b915050604083015184820360408601526154f182826150d9565b9150506060830151848203606086015261550b82826150d9565b9150506080830151848203608086015261552582826150d9565b91505060a083015184820360a086015261553f82826150d9565b91505060c083015184820360c086015261555982826150d9565b91505060e083015184820360e086015261557382826150d9565b91505061010083015161558a610100860182615595565b508091505092915050565b61559e81615a94565b82525050565b6155ad81615a94565b82525050565b60006155bf8284614fd1565b60148201915081905092915050565b60006155da828461514b565b915081905092915050565b60006155f1828461517c565b915081905092915050565b60006060820190506156116000830186614fc2565b61561e6020830185614fc2565b61562b60408301846155a4565b949350505050565b60006080820190506156486000830187614fc2565b818103602083015261565a8186615112565b9050818103604083015261566e8185615112565b905061567d60608301846155a4565b95945050505050565b600060a08201905081810360008301526156a08188615112565b905081810360208301526156b48187615112565b90506156c36040830186614fc2565b6156d060608301856155a4565b6156dd60808301846150ca565b9695505050505050565b600060c08201905081810360008301526157018189615112565b905081810360208301526157158188615112565b90506157246040830187614fc2565b61573160608301866155a4565b61573e60808301856150ca565b61574b60a0830184614fc2565b979650505050505050565b6000602082019050818103600083015261577081846151fb565b905092915050565b600060208201905081810360008301526157928184615259565b905092915050565b600060208201905081810360008301526157b4818461533a565b905092915050565b600060608201905081810360008301526157d681866154a6565b905081810360208301526157ea8185615112565b905081810360408301526157fe8184615112565b9050949350505050565b600060c082019050818103600083015261582281896154a6565b905081810360208301526158368188615112565b9050818103604083015261584a8187615112565b9050818103606083015261585e8186615112565b905081810360808301526158728185615112565b905081810360a08301526158868184615112565b9050979650505050505050565b60006020820190506158a860008301846155a4565b92915050565b60006158b86158c9565b90506158c48282615b24565b919050565b6000604051905090565b600067ffffffffffffffff8211156158ee576158ed615c4f565b5b602082029050602081019050919050565b600067ffffffffffffffff82111561591a57615919615c4f565b5b602082029050602081019050919050565b600067ffffffffffffffff82111561594657615945615c4f565b5b61594f82615c7e565b9050602081019050919050565b6000819050602082019050919050565b6000819050602082019050919050565b60008190508160005260206000209050919050565b600081519050919050565b600081519050919050565b600081519050919050565b6000602082019050919050565b6000602082019050919050565b600082825260208201905092915050565b600082825260208201905092915050565b600082825260208201905092915050565b600082825260208201905092915050565b600081905092915050565b6000615a2682615a94565b9150615a3183615a94565b925082821015615a4457615a43615bc2565b5b828203905092915050565b6000615a5a82615a74565b9050919050565b6000819050615a6f82615c9c565b919050565b600073ffffffffffffffffffffffffffffffffffffffff82169050919050565b6000819050919050565b6000615aa982615a61565b9050919050565b82818337600083830152505050565b60005b83811015615add578082015181840152602081019050615ac2565b83811115615aec576000848401525b50505050565b60006002820490506001821680615b0a57607f821691505b60208210811415615b1e57615b1d615c20565b5b50919050565b615b2d82615c7e565b810181811067ffffffffffffffff82111715615b4c57615b4b615c4f565b5b80604052505050565b6000615b6082615a94565b91507fffffffffffffffffffffffffffffffffffffffffffffffffffffffffffffffff821415615b9357615b92615bc2565b5b600182019050919050565b6000615ba982615bb0565b9050919050565b6000615bbb82615c8f565b9050919050565b7f4e487b7100000000000000000000000000000000000000000000000000000000600052601160045260246000fd5b7f4e487b7100000000000000000000000000000000000000000000000000000000600052602160045260246000fd5b7f4e487b7100000000000000000000000000000000000000000000000000000000600052602260045260246000fd5b7f4e487b7100000000000000000000000000000000000000000000000000000000600052604160045260246000fd5b6000601f19601f8301169050919050565b60008160601b9050919050565b60038110615cad57615cac615bf1565b5b50565b615cb981615a4f565b8114615cc457600080fd5b50565b60038110615cd457600080fd5b50565b615ce081615a94565b8114615ceb57600080fd5b5056fea2646970667358221220dee9357007683799f2c0024b8a67899c2753cc0ec3d7f97a437db122ba65348164736f6c63430008020033",
  "immutableReferences": {},
  "source": "// SPDX-License-Identifier: MIT\npragma solidity 0.8.2;\npragma experimental ABIEncoderV2;\n\ncontract MainContract {\n    struct User {\n        address addr;\n        string IC;\n        string name;\n        string gender;\n        string birthdate;\n        string email;\n        string homeAddress;\n        string phone;\n        uint userSince;\n    }\n\n    struct Doctor {\n        User primaryInfo;\n        string qualification;\n        string major;\n    }\n\n    enum RecordStatus {\n        PENDING,\n        COMPLETED,\n        DECLINED\n    }\n\n    struct Record {\n        string encryptedID;\n        string dataHash;\n        address issuerDoctorAddr;\n        uint timestamp;\n        RecordStatus recordStatus;\n    }\n\n    struct Patient {\n        User primaryInfo;\n        string emergencyContact;\n        string emergencyNumber;\n        string bloodType;\n        string height;\n        string weight;\n        address[] whitelistedDoctor;\n        string[] recordList;\n    }\n\n    uint public totalPatients = 0;\n    uint public totalDoctors = 0;\n    mapping(address => Patient) public patientList;\n    mapping(address => Doctor) public doctorList;\n    mapping(string => Record) public recordList;\n    mapping(address => bool) isPatient;\n    mapping(address => bool) isDoctor;\n\n    event PatientCreated(\n        address patientAddr,\n        string patientName,\n        string patientIC,\n        uint timestamp\n    );\n\n    event DoctorCreated(\n        address doctorAddr,\n        string doctorName,\n        string doctorIC,\n        uint timestamp\n    );\n\n    event WhitelistDoctor(\n        address patientAddr,\n        address doctorAddr,\n        uint timestamp\n    );\n\n    event RecordCreated(\n        string encryptedID,\n        string dataHash,\n        address issuerDoctorAddr,\n        uint timestamp,\n        RecordStatus recordStatus,\n        address patientAddr\n    );\n\n    function createPatient(\n        User memory userInfo,\n        string memory _emergencyContact,\n        string memory _emergencyNumber,\n        string memory _bloodType,\n        string memory _height,\n        string memory _weight,\n        address[] memory _whitelistedDoctor,\n        string[] memory _recordList\n    ) public {\n        address patientAddress = userInfo.addr;\n\n        require(!isPatient[userInfo.addr]);\n        isPatient[patientAddress] = true;\n\n        uint timestamp = userInfo.userSince;\n        patientList[patientAddress].primaryInfo = userInfo;\n        patientList[patientAddress].emergencyContact = _emergencyContact;\n        patientList[patientAddress].emergencyNumber = _emergencyNumber;\n        patientList[patientAddress].bloodType = _bloodType;\n        patientList[patientAddress].height = _height;\n        patientList[patientAddress].weight = _weight;\n\n        // address[] memory whitelistedDoctor;\n        for (uint i = 0; i < _whitelistedDoctor.length; i++) {\n            require(isDoctor[_whitelistedDoctor[i]]);\n        }\n        patientList[patientAddress].whitelistedDoctor = _whitelistedDoctor;\n        patientList[patientAddress].recordList = _recordList;\n\n        totalPatients++;\n\n        emit PatientCreated(\n            userInfo.addr,\n            userInfo.name,\n            userInfo.IC,\n            timestamp\n        );\n    }\n\n    function setPatientDetails(\n        User memory userInfo,\n        string memory _emergencyContact,\n        string memory _emergencyNumber,\n        string memory _bloodType,\n        string memory _height,\n        string memory _weight,\n        address[] memory _whitelistedDoctor,\n        string[] memory _recordList\n    ) public {\n        address patientAddress = userInfo.addr;\n        require(isPatient[patientAddress]);\n        // Update all except address & userSince\n        patientList[patientAddress].primaryInfo.IC = userInfo.IC;\n        patientList[patientAddress].primaryInfo.name = userInfo.name;\n        patientList[patientAddress].primaryInfo.gender = userInfo.gender;\n        patientList[patientAddress].primaryInfo.birthdate = userInfo.birthdate;\n        patientList[patientAddress].primaryInfo.email = userInfo.email;\n        patientList[patientAddress].primaryInfo.homeAddress = userInfo\n            .homeAddress;\n        patientList[patientAddress].primaryInfo.phone = userInfo.phone;\n\n        patientList[patientAddress].emergencyContact = _emergencyContact;\n        patientList[patientAddress].emergencyNumber = _emergencyNumber;\n        patientList[patientAddress].bloodType = _bloodType;\n        patientList[patientAddress].height = _height;\n        patientList[patientAddress].weight = _weight;\n\n        // address[] memory whitelistedDoctor;\n        for (uint i = 0; i < _whitelistedDoctor.length; i++) {\n            require(isDoctor[_whitelistedDoctor[i]]);\n        }\n        patientList[patientAddress].whitelistedDoctor = _whitelistedDoctor;\n        patientList[patientAddress].recordList = _recordList;\n    }\n\n    function addWhitelistedDoctor(\n        address doctorAddress,\n        address patientAddress\n    ) public {\n        require(isDoctor[doctorAddress]);\n        require(isPatient[patientAddress]);\n        patientList[patientAddress].whitelistedDoctor.push(doctorAddress);\n\n        emit WhitelistDoctor(doctorAddress, patientAddress, block.timestamp);\n    }\n\n    function removeWhitelistedDoctor(\n        address doctorAddress,\n        address patientAddress\n    ) public {\n        require(isDoctor[doctorAddress]);\n        require(isPatient[patientAddress]);\n\n        for (\n            uint i = 0;\n            i < patientList[patientAddress].whitelistedDoctor.length;\n            i++\n        ) {\n            if (\n                keccak256(\n                    abi.encodePacked(\n                        patientList[patientAddress].whitelistedDoctor[i]\n                    )\n                ) == keccak256(abi.encodePacked(doctorAddress))\n            ) {\n                patientList[patientAddress].whitelistedDoctor[i] = patientList[\n                    patientAddress\n                ].whitelistedDoctor[\n                        patientList[patientAddress].whitelistedDoctor.length - 1\n                    ];\n                patientList[patientAddress].whitelistedDoctor.pop();\n                break;\n            }\n        }\n    }\n\n    function getPatientDetails(\n        address patientAddress\n    ) public view returns (Patient memory) {\n        return patientList[patientAddress];\n    }\n\n    function createDoctor(\n        User memory userInfo,\n        string memory _qualification,\n        string memory _major\n    ) public {\n        address doctorAddress = userInfo.addr;\n        require(!isDoctor[doctorAddress]);\n\n        isDoctor[doctorAddress] = true;\n        uint timestamp = userInfo.userSince;\n\n        doctorList[doctorAddress].primaryInfo = userInfo;\n        doctorList[doctorAddress].qualification = _qualification;\n        doctorList[doctorAddress].major = _major;\n\n        totalDoctors++;\n\n        emit DoctorCreated(\n            userInfo.addr,\n            userInfo.name,\n            userInfo.IC,\n            timestamp\n        );\n    }\n\n    function setDoctorDetails(\n        User memory userInfo,\n        string memory _qualification,\n        string memory _major\n    ) public {\n        address doctorAddress = userInfo.addr;\n        require(isDoctor[doctorAddress]);\n\n        // Update all except address & userSince\n        doctorList[doctorAddress].primaryInfo.IC = userInfo.IC;\n        doctorList[doctorAddress].primaryInfo.name = userInfo.name;\n        doctorList[doctorAddress].primaryInfo.gender = userInfo.gender;\n        doctorList[doctorAddress].primaryInfo.birthdate = userInfo.birthdate;\n        doctorList[doctorAddress].primaryInfo.email = userInfo.email;\n        doctorList[doctorAddress].primaryInfo.homeAddress = userInfo\n            .homeAddress;\n        doctorList[doctorAddress].primaryInfo.phone = userInfo.phone;\n        doctorList[doctorAddress].qualification = _qualification;\n        doctorList[doctorAddress].major = _major;\n    }\n\n    function getDoctorDetails(\n        address doctorAddress\n    ) public view returns (Doctor memory) {\n        return doctorList[doctorAddress];\n    }\n\n    function createRecord(\n        string memory _encryptedID,\n        string memory _dataHash,\n        address _issuerDoctorAddr,\n        address _patientAddr\n    ) public {\n        require(isDoctor[_issuerDoctorAddr]);\n        require(isPatient[_patientAddr]);\n\n        uint timestamp = block.timestamp;\n        RecordStatus recordStatus = RecordStatus.PENDING;\n\n        recordList[_encryptedID].encryptedID = _encryptedID;\n        recordList[_encryptedID].dataHash = _dataHash;\n        recordList[_encryptedID].issuerDoctorAddr = _issuerDoctorAddr;\n        recordList[_encryptedID].timestamp = timestamp;\n        recordList[_encryptedID].recordStatus = recordStatus;\n\n        patientList[_patientAddr].recordList.push(_encryptedID);\n\n        emit RecordCreated(\n            _encryptedID,\n            _dataHash,\n            _issuerDoctorAddr,\n            timestamp,\n            recordStatus,\n            _patientAddr\n        );\n    }\n\n    function getRecordDetails(\n        string memory _encryptedID\n    ) public view returns (Record memory) {\n        return recordList[_encryptedID];\n    }\n\n    function editRecord(\n        string memory _encryptedID,\n        string memory _dataHash,\n        address _issuerDoctorAddr,\n        RecordStatus _recordStatus\n    ) public {\n        uint timestamp = block.timestamp;\n        recordList[_encryptedID].encryptedID = _encryptedID;\n        recordList[_encryptedID].dataHash = _dataHash;\n        recordList[_encryptedID].issuerDoctorAddr = _issuerDoctorAddr;\n        recordList[_encryptedID].timestamp = timestamp;\n        recordList[_encryptedID].recordStatus = _recordStatus;\n    }\n\n    function removeRecord(\n        string memory _encryptedID,\n        address _patientAddress\n    ) public {\n        require(isPatient[_patientAddress]);\n        delete recordList[_encryptedID];\n\n        for (\n            uint i = 0;\n            i < patientList[_patientAddress].recordList.length;\n            i++\n        ) {\n            if (\n                keccak256(\n                    abi.encodePacked(patientList[_patientAddress].recordList[i])\n                ) == keccak256(abi.encodePacked(_encryptedID))\n            ) {\n                patientList[_patientAddress].recordList[i] = patientList[\n                    _patientAddress\n                ].recordList[\n                        patientList[_patientAddress].recordList.length - 1\n                    ];\n                patientList[_patientAddress].recordList.pop();\n                break;\n            }\n        }\n    }\n}\n",
  "sourcePath": "/Users/vanessachristy/Documents/School Y4S1/FYP/mymedtrust/contracts/MainContract.sol",
  "compiler": {
    "name": "solc",
    "version": "0.8.2+commit.661d1103.Emscripten.clang"
  },
  "schemaVersion": "3.4.15",
  "updatedAt": "2023-10-08T14:23:52.106Z",
  "devdoc": {
    "kind": "dev",
    "methods": {},
    "version": 1
  },
  "userdoc": {
    "kind": "user",
    "methods": {},
    "version": 1
  }
}