{
  "contractName": "MainContract",
  "abi": [
    {
      "anonymous": false,
      "inputs": [
        {
          "indexed": false,
          "internalType": "address",
          "name": "doctorAddr",
          "type": "address"
        },
        {
          "indexed": false,
          "internalType": "string",
          "name": "doctorName",
          "type": "string"
        },
        {
          "indexed": false,
          "internalType": "string",
          "name": "doctorIC",
          "type": "string"
        },
        {
          "indexed": false,
          "internalType": "uint256",
          "name": "timestamp",
          "type": "uint256"
        }
      ],
      "name": "DoctorCreated",
      "type": "event"
    },
    {
      "anonymous": false,
      "inputs": [
        {
          "indexed": false,
          "internalType": "address",
          "name": "patientAddr",
          "type": "address"
        },
        {
          "indexed": false,
          "internalType": "string",
          "name": "patientName",
          "type": "string"
        },
        {
          "indexed": false,
          "internalType": "string",
          "name": "patientIC",
          "type": "string"
        },
        {
          "indexed": false,
          "internalType": "uint256",
          "name": "timestamp",
          "type": "uint256"
        }
      ],
      "name": "PatientCreated",
      "type": "event"
    },
    {
      "anonymous": false,
      "inputs": [
        {
          "indexed": false,
          "internalType": "string",
          "name": "encryptedID",
          "type": "string"
        },
        {
          "indexed": false,
          "internalType": "string",
          "name": "dataHash",
          "type": "string"
        },
        {
          "indexed": false,
          "internalType": "address",
          "name": "issuerDoctorAddr",
          "type": "address"
        },
        {
          "indexed": false,
          "internalType": "uint256",
          "name": "timestamp",
          "type": "uint256"
        },
        {
          "indexed": false,
          "internalType": "enum MainContract.RecordStatus",
          "name": "recordStatus",
          "type": "uint8"
        },
        {
          "indexed": false,
          "internalType": "address",
          "name": "patientAddr",
          "type": "address"
        }
      ],
      "name": "RecordCreated",
      "type": "event"
    },
    {
      "anonymous": false,
      "inputs": [
        {
          "indexed": false,
          "internalType": "address",
          "name": "patientAddr",
          "type": "address"
        },
        {
          "indexed": false,
          "internalType": "address",
          "name": "doctorAddr",
          "type": "address"
        },
        {
          "indexed": false,
          "internalType": "uint256",
          "name": "timestamp",
          "type": "uint256"
        }
      ],
      "name": "WhitelistDoctor",
      "type": "event"
    },
    {
      "constant": true,
      "inputs": [
        {
          "internalType": "address",
          "name": "",
          "type": "address"
        }
      ],
      "name": "doctorList",
      "outputs": [
        {
          "components": [
            {
              "internalType": "address",
              "name": "addr",
              "type": "address"
            },
            {
              "internalType": "string",
              "name": "IC",
              "type": "string"
            },
            {
              "internalType": "string",
              "name": "name",
              "type": "string"
            },
            {
              "internalType": "string",
              "name": "gender",
              "type": "string"
            },
            {
              "internalType": "string",
              "name": "birthdate",
              "type": "string"
            },
            {
              "internalType": "string",
              "name": "email",
              "type": "string"
            },
            {
              "internalType": "string",
              "name": "homeAddress",
              "type": "string"
            },
            {
              "internalType": "string",
              "name": "phone",
              "type": "string"
            },
            {
              "internalType": "uint256",
              "name": "userSince",
              "type": "uint256"
            }
          ],
          "internalType": "struct MainContract.User",
          "name": "primaryInfo",
          "type": "tuple"
        },
        {
          "internalType": "string",
          "name": "qualification",
          "type": "string"
        },
        {
          "internalType": "string",
          "name": "major",
          "type": "string"
        }
      ],
      "payable": false,
      "stateMutability": "view",
      "type": "function"
    },
    {
      "constant": true,
      "inputs": [
        {
          "internalType": "address",
          "name": "",
          "type": "address"
        }
      ],
      "name": "patientList",
      "outputs": [
        {
          "components": [
            {
              "internalType": "address",
              "name": "addr",
              "type": "address"
            },
            {
              "internalType": "string",
              "name": "IC",
              "type": "string"
            },
            {
              "internalType": "string",
              "name": "name",
              "type": "string"
            },
            {
              "internalType": "string",
              "name": "gender",
              "type": "string"
            },
            {
              "internalType": "string",
              "name": "birthdate",
              "type": "string"
            },
            {
              "internalType": "string",
              "name": "email",
              "type": "string"
            },
            {
              "internalType": "string",
              "name": "homeAddress",
              "type": "string"
            },
            {
              "internalType": "string",
              "name": "phone",
              "type": "string"
            },
            {
              "internalType": "uint256",
              "name": "userSince",
              "type": "uint256"
            }
          ],
          "internalType": "struct MainContract.User",
          "name": "primaryInfo",
          "type": "tuple"
        },
        {
          "internalType": "string",
          "name": "emergencyContact",
          "type": "string"
        },
        {
          "internalType": "string",
          "name": "emergencyNumber",
          "type": "string"
        },
        {
          "internalType": "string",
          "name": "bloodType",
          "type": "string"
        },
        {
          "internalType": "string",
          "name": "height",
          "type": "string"
        },
        {
          "internalType": "string",
          "name": "weight",
          "type": "string"
        }
      ],
      "payable": false,
      "stateMutability": "view",
      "type": "function"
    },
    {
      "constant": true,
      "inputs": [
        {
          "internalType": "string",
          "name": "",
          "type": "string"
        }
      ],
      "name": "recordList",
      "outputs": [
        {
          "internalType": "string",
          "name": "encryptedID",
          "type": "string"
        },
        {
          "internalType": "string",
          "name": "dataHash",
          "type": "string"
        },
        {
          "internalType": "address",
          "name": "issuerDoctorAddr",
          "type": "address"
        },
        {
          "internalType": "uint256",
          "name": "timestamp",
          "type": "uint256"
        },
        {
          "internalType": "enum MainContract.RecordStatus",
          "name": "recordStatus",
          "type": "uint8"
        }
      ],
      "payable": false,
      "stateMutability": "view",
      "type": "function"
    },
    {
      "constant": true,
      "inputs": [],
      "name": "totalDoctors",
      "outputs": [
        {
          "internalType": "uint256",
          "name": "",
          "type": "uint256"
        }
      ],
      "payable": false,
      "stateMutability": "view",
      "type": "function"
    },
    {
      "constant": true,
      "inputs": [],
      "name": "totalPatients",
      "outputs": [
        {
          "internalType": "uint256",
          "name": "",
          "type": "uint256"
        }
      ],
      "payable": false,
      "stateMutability": "view",
      "type": "function"
    },
    {
      "constant": false,
      "inputs": [
        {
          "components": [
            {
              "internalType": "address",
              "name": "addr",
              "type": "address"
            },
            {
              "internalType": "string",
              "name": "IC",
              "type": "string"
            },
            {
              "internalType": "string",
              "name": "name",
              "type": "string"
            },
            {
              "internalType": "string",
              "name": "gender",
              "type": "string"
            },
            {
              "internalType": "string",
              "name": "birthdate",
              "type": "string"
            },
            {
              "internalType": "string",
              "name": "email",
              "type": "string"
            },
            {
              "internalType": "string",
              "name": "homeAddress",
              "type": "string"
            },
            {
              "internalType": "string",
              "name": "phone",
              "type": "string"
            },
            {
              "internalType": "uint256",
              "name": "userSince",
              "type": "uint256"
            }
          ],
          "internalType": "struct MainContract.User",
          "name": "userInfo",
          "type": "tuple"
        },
        {
          "internalType": "string",
          "name": "_emergencyContact",
          "type": "string"
        },
        {
          "internalType": "string",
          "name": "_emergencyNumber",
          "type": "string"
        },
        {
          "internalType": "string",
          "name": "_bloodType",
          "type": "string"
        },
        {
          "internalType": "string",
          "name": "_height",
          "type": "string"
        },
        {
          "internalType": "string",
          "name": "_weight",
          "type": "string"
        },
        {
          "internalType": "address[]",
          "name": "_whitelistedDoctor",
          "type": "address[]"
        },
        {
          "internalType": "string[]",
          "name": "_recordList",
          "type": "string[]"
        }
      ],
      "name": "createPatient",
      "outputs": [],
      "payable": false,
      "stateMutability": "nonpayable",
      "type": "function"
    },
    {
      "constant": false,
      "inputs": [
        {
          "components": [
            {
              "internalType": "address",
              "name": "addr",
              "type": "address"
            },
            {
              "internalType": "string",
              "name": "IC",
              "type": "string"
            },
            {
              "internalType": "string",
              "name": "name",
              "type": "string"
            },
            {
              "internalType": "string",
              "name": "gender",
              "type": "string"
            },
            {
              "internalType": "string",
              "name": "birthdate",
              "type": "string"
            },
            {
              "internalType": "string",
              "name": "email",
              "type": "string"
            },
            {
              "internalType": "string",
              "name": "homeAddress",
              "type": "string"
            },
            {
              "internalType": "string",
              "name": "phone",
              "type": "string"
            },
            {
              "internalType": "uint256",
              "name": "userSince",
              "type": "uint256"
            }
          ],
          "internalType": "struct MainContract.User",
          "name": "userInfo",
          "type": "tuple"
        },
        {
          "internalType": "string",
          "name": "_emergencyContact",
          "type": "string"
        },
        {
          "internalType": "string",
          "name": "_emergencyNumber",
          "type": "string"
        },
        {
          "internalType": "string",
          "name": "_bloodType",
          "type": "string"
        },
        {
          "internalType": "string",
          "name": "_height",
          "type": "string"
        },
        {
          "internalType": "string",
          "name": "_weight",
          "type": "string"
        },
        {
          "internalType": "address[]",
          "name": "_whitelistedDoctor",
          "type": "address[]"
        },
        {
          "internalType": "string[]",
          "name": "_recordList",
          "type": "string[]"
        }
      ],
      "name": "setPatientDetails",
      "outputs": [],
      "payable": false,
      "stateMutability": "nonpayable",
      "type": "function"
    },
    {
      "constant": false,
      "inputs": [
        {
          "internalType": "address",
          "name": "doctorAddress",
          "type": "address"
        },
        {
          "internalType": "address",
          "name": "patientAddress",
          "type": "address"
        }
      ],
      "name": "addWhitelistedDoctor",
      "outputs": [],
      "payable": false,
      "stateMutability": "nonpayable",
      "type": "function"
    },
    {
      "constant": true,
      "inputs": [
        {
          "internalType": "address",
          "name": "patientAddress",
          "type": "address"
        }
      ],
      "name": "getPatientDetails",
      "outputs": [
        {
          "components": [
            {
              "components": [
                {
                  "internalType": "address",
                  "name": "addr",
                  "type": "address"
                },
                {
                  "internalType": "string",
                  "name": "IC",
                  "type": "string"
                },
                {
                  "internalType": "string",
                  "name": "name",
                  "type": "string"
                },
                {
                  "internalType": "string",
                  "name": "gender",
                  "type": "string"
                },
                {
                  "internalType": "string",
                  "name": "birthdate",
                  "type": "string"
                },
                {
                  "internalType": "string",
                  "name": "email",
                  "type": "string"
                },
                {
                  "internalType": "string",
                  "name": "homeAddress",
                  "type": "string"
                },
                {
                  "internalType": "string",
                  "name": "phone",
                  "type": "string"
                },
                {
                  "internalType": "uint256",
                  "name": "userSince",
                  "type": "uint256"
                }
              ],
              "internalType": "struct MainContract.User",
              "name": "primaryInfo",
              "type": "tuple"
            },
            {
              "internalType": "string",
              "name": "emergencyContact",
              "type": "string"
            },
            {
              "internalType": "string",
              "name": "emergencyNumber",
              "type": "string"
            },
            {
              "internalType": "string",
              "name": "bloodType",
              "type": "string"
            },
            {
              "internalType": "string",
              "name": "height",
              "type": "string"
            },
            {
              "internalType": "string",
              "name": "weight",
              "type": "string"
            },
            {
              "internalType": "address[]",
              "name": "whitelistedDoctor",
              "type": "address[]"
            },
            {
              "internalType": "string[]",
              "name": "recordList",
              "type": "string[]"
            }
          ],
          "internalType": "struct MainContract.Patient",
          "name": "",
          "type": "tuple"
        }
      ],
      "payable": false,
      "stateMutability": "view",
      "type": "function"
    },
    {
      "constant": false,
      "inputs": [
        {
          "components": [
            {
              "internalType": "address",
              "name": "addr",
              "type": "address"
            },
            {
              "internalType": "string",
              "name": "IC",
              "type": "string"
            },
            {
              "internalType": "string",
              "name": "name",
              "type": "string"
            },
            {
              "internalType": "string",
              "name": "gender",
              "type": "string"
            },
            {
              "internalType": "string",
              "name": "birthdate",
              "type": "string"
            },
            {
              "internalType": "string",
              "name": "email",
              "type": "string"
            },
            {
              "internalType": "string",
              "name": "homeAddress",
              "type": "string"
            },
            {
              "internalType": "string",
              "name": "phone",
              "type": "string"
            },
            {
              "internalType": "uint256",
              "name": "userSince",
              "type": "uint256"
            }
          ],
          "internalType": "struct MainContract.User",
          "name": "userInfo",
          "type": "tuple"
        },
        {
          "internalType": "string",
          "name": "_qualification",
          "type": "string"
        },
        {
          "internalType": "string",
          "name": "_major",
          "type": "string"
        }
      ],
      "name": "createDoctor",
      "outputs": [],
      "payable": false,
      "stateMutability": "nonpayable",
      "type": "function"
    },
    {
      "constant": false,
      "inputs": [
        {
          "components": [
            {
              "internalType": "address",
              "name": "addr",
              "type": "address"
            },
            {
              "internalType": "string",
              "name": "IC",
              "type": "string"
            },
            {
              "internalType": "string",
              "name": "name",
              "type": "string"
            },
            {
              "internalType": "string",
              "name": "gender",
              "type": "string"
            },
            {
              "internalType": "string",
              "name": "birthdate",
              "type": "string"
            },
            {
              "internalType": "string",
              "name": "email",
              "type": "string"
            },
            {
              "internalType": "string",
              "name": "homeAddress",
              "type": "string"
            },
            {
              "internalType": "string",
              "name": "phone",
              "type": "string"
            },
            {
              "internalType": "uint256",
              "name": "userSince",
              "type": "uint256"
            }
          ],
          "internalType": "struct MainContract.User",
          "name": "userInfo",
          "type": "tuple"
        },
        {
          "internalType": "string",
          "name": "_qualification",
          "type": "string"
        },
        {
          "internalType": "string",
          "name": "_major",
          "type": "string"
        }
      ],
      "name": "setDoctorDetails",
      "outputs": [],
      "payable": false,
      "stateMutability": "nonpayable",
      "type": "function"
    },
    {
      "constant": true,
      "inputs": [
        {
          "internalType": "address",
          "name": "doctorAddress",
          "type": "address"
        }
      ],
      "name": "getDoctorDetails",
      "outputs": [
        {
          "components": [
            {
              "components": [
                {
                  "internalType": "address",
                  "name": "addr",
                  "type": "address"
                },
                {
                  "internalType": "string",
                  "name": "IC",
                  "type": "string"
                },
                {
                  "internalType": "string",
                  "name": "name",
                  "type": "string"
                },
                {
                  "internalType": "string",
                  "name": "gender",
                  "type": "string"
                },
                {
                  "internalType": "string",
                  "name": "birthdate",
                  "type": "string"
                },
                {
                  "internalType": "string",
                  "name": "email",
                  "type": "string"
                },
                {
                  "internalType": "string",
                  "name": "homeAddress",
                  "type": "string"
                },
                {
                  "internalType": "string",
                  "name": "phone",
                  "type": "string"
                },
                {
                  "internalType": "uint256",
                  "name": "userSince",
                  "type": "uint256"
                }
              ],
              "internalType": "struct MainContract.User",
              "name": "primaryInfo",
              "type": "tuple"
            },
            {
              "internalType": "string",
              "name": "qualification",
              "type": "string"
            },
            {
              "internalType": "string",
              "name": "major",
              "type": "string"
            }
          ],
          "internalType": "struct MainContract.Doctor",
          "name": "",
          "type": "tuple"
        }
      ],
      "payable": false,
      "stateMutability": "view",
      "type": "function"
    },
    {
      "constant": false,
      "inputs": [
        {
          "internalType": "string",
          "name": "_encryptedID",
          "type": "string"
        },
        {
          "internalType": "string",
          "name": "_dataHash",
          "type": "string"
        },
        {
          "internalType": "address",
          "name": "_issuerDoctorAddr",
          "type": "address"
        },
        {
          "internalType": "address",
          "name": "_patientAddr",
          "type": "address"
        }
      ],
      "name": "createRecord",
      "outputs": [],
      "payable": false,
      "stateMutability": "nonpayable",
      "type": "function"
    },
    {
      "constant": true,
      "inputs": [
        {
          "internalType": "string",
          "name": "_encryptedID",
          "type": "string"
        }
      ],
      "name": "getRecordDetails",
      "outputs": [
        {
          "components": [
            {
              "internalType": "string",
              "name": "encryptedID",
              "type": "string"
            },
            {
              "internalType": "string",
              "name": "dataHash",
              "type": "string"
            },
            {
              "internalType": "address",
              "name": "issuerDoctorAddr",
              "type": "address"
            },
            {
              "internalType": "uint256",
              "name": "timestamp",
              "type": "uint256"
            },
            {
              "internalType": "enum MainContract.RecordStatus",
              "name": "recordStatus",
              "type": "uint8"
            }
          ],
          "internalType": "struct MainContract.Record",
          "name": "",
          "type": "tuple"
        }
      ],
      "payable": false,
      "stateMutability": "view",
      "type": "function"
    },
    {
      "constant": false,
      "inputs": [
        {
          "internalType": "string",
          "name": "_encryptedID",
          "type": "string"
        },
        {
          "internalType": "string",
          "name": "_dataHash",
          "type": "string"
        },
        {
          "internalType": "address",
          "name": "_issuerDoctorAddr",
          "type": "address"
        },
        {
          "internalType": "enum MainContract.RecordStatus",
          "name": "_recordStatus",
          "type": "uint8"
        }
      ],
      "name": "editRecord",
      "outputs": [
        {
          "components": [
            {
              "internalType": "string",
              "name": "encryptedID",
              "type": "string"
            },
            {
              "internalType": "string",
              "name": "dataHash",
              "type": "string"
            },
            {
              "internalType": "address",
              "name": "issuerDoctorAddr",
              "type": "address"
            },
            {
              "internalType": "uint256",
              "name": "timestamp",
              "type": "uint256"
            },
            {
              "internalType": "enum MainContract.RecordStatus",
              "name": "recordStatus",
              "type": "uint8"
            }
          ],
          "internalType": "struct MainContract.Record",
          "name": "",
          "type": "tuple"
        }
      ],
      "payable": false,
      "stateMutability": "nonpayable",
      "type": "function"
    },
    {
      "constant": false,
      "inputs": [
        {
          "internalType": "string",
          "name": "_encryptedID",
          "type": "string"
        },
        {
          "internalType": "address",
          "name": "_patientAddress",
          "type": "address"
        }
      ],
      "name": "removeRecord",
      "outputs": [],
      "payable": false,
      "stateMutability": "nonpayable",
      "type": "function"
    }
  ],
  "bytecode": "0x608060405260008055600060015534801561001957600080fd5b50615d32806200002a6000396000f3fe608060405234801561001057600080fd5b50600436106101005760003560e01c8063b6b8ba3611610097578063deb5ef0911610066578063deb5ef09146102b0578063e4a6d0f0146102ce578063e6224df4146102fe578063efe2ccc11461033057610100565b8063b6b8ba3614610213578063b715962c1461022f578063bab90dbd1461024b578063da2e626f1461027b57610100565b80634fce2b68116100d35780634fce2b68146101a157806365b44d7e146101bd57806387927215146101db5780638e55966d146101f757610100565b80631a9e48f5146101055780631bc7a79a1461013557806322d0741b14610151578063448259e81461016d575b600080fd5b61011f600480360361011a9190810190614c0a565b610360565b60405161012c919061593d565b60405180910390f35b61014f600480360361014a9190810190614dc5565b610569565b005b61016b60048036036101669190810190614c9f565b610944565b005b61018760048036036101829190810190614bc9565b610c62565b604051610198959493929190615838565b60405180910390f35b6101bb60048036036101b69190810190614b8d565b610e0b565b005b6101c5611008565b6040516101d29190615a36565b60405180910390f35b6101f560048036036101f09190810190614e5c565b61100e565b005b610211600480360361020c9190810190614c4b565b611563565b005b61022d60048036036102289190810190614e5c565b6117ea565b005b61024960048036036102449190810190614dc5565b611e39565b005b61026560048036036102609190810190614b64565b61216e565b60405161027291906158f9565b60405180910390f35b61029560048036036102909190810190614b64565b612856565b6040516102a7969594939291906159ab565b60405180910390f35b6102b8613063565b6040516102c59190615a36565b60405180910390f35b6102e860048036036102e39190810190614d32565b613069565b6040516102f5919061593d565b60405180910390f35b61031860048036036103139190810190614b64565b6133af565b6040516103279392919061595f565b60405180910390f35b61034a60048036036103459190810190614b64565b6139e2565b604051610357919061591b565b60405180910390f35b610368614418565b6004826040516103789190615711565b90815260200160405180910390206040518060a0016040529081600082018054600181600116156101000203166002900480601f01602080910402602001604051908101604052809291908181526020018280546001816001161561010002031660029004801561042a5780601f106103ff5761010080835404028352916020019161042a565b820191906000526020600020905b81548152906001019060200180831161040d57829003601f168201915b50505050508152602001600182018054600181600116156101000203166002900480601f0160208091040260200160405190810160405280929190818152602001828054600181600116156101000203166002900480156104cc5780601f106104a1576101008083540402835291602001916104cc565b820191906000526020600020905b8154815290600101906020018083116104af57829003601f168201915b505050505081526020016002820160009054906101000a900473ffffffffffffffffffffffffffffffffffffffff1673ffffffffffffffffffffffffffffffffffffffff1673ffffffffffffffffffffffffffffffffffffffff168152602001600382015481526020016004820160009054906101000a900460ff16600281111561055357fe5b600281111561055e57fe5b815250509050919050565b600083600001519050600660008273ffffffffffffffffffffffffffffffffffffffff1673ffffffffffffffffffffffffffffffffffffffff16815260200190815260200160002060009054906101000a900460ff166105fe576040517f08c379a00000000000000000000000000000000000000000000000000000000081526004016105f5906158b9565b60405180910390fd5b8360200151600360008373ffffffffffffffffffffffffffffffffffffffff1673ffffffffffffffffffffffffffffffffffffffff168152602001908152602001600020600001600101908051906020019061065b929190614468565b508360400151600360008373ffffffffffffffffffffffffffffffffffffffff1673ffffffffffffffffffffffffffffffffffffffff16815260200190815260200160002060000160020190805190602001906106b9929190614468565b508360600151600360008373ffffffffffffffffffffffffffffffffffffffff1673ffffffffffffffffffffffffffffffffffffffff1681526020019081526020016000206000016003019080519060200190610717929190614468565b508360800151600360008373ffffffffffffffffffffffffffffffffffffffff1673ffffffffffffffffffffffffffffffffffffffff1681526020019081526020016000206000016004019080519060200190610775929190614468565b508360a00151600360008373ffffffffffffffffffffffffffffffffffffffff1673ffffffffffffffffffffffffffffffffffffffff16815260200190815260200160002060000160050190805190602001906107d3929190614468565b508360c00151600360008373ffffffffffffffffffffffffffffffffffffffff1673ffffffffffffffffffffffffffffffffffffffff1681526020019081526020016000206000016006019080519060200190610831929190614468565b508360e00151600360008373ffffffffffffffffffffffffffffffffffffffff1673ffffffffffffffffffffffffffffffffffffffff168152602001908152602001600020600001600701908051906020019061088f929190614468565b5082600360008373ffffffffffffffffffffffffffffffffffffffff1673ffffffffffffffffffffffffffffffffffffffff16815260200190815260200160002060090190805190602001906108e6929190614468565b5081600360008373ffffffffffffffffffffffffffffffffffffffff1673ffffffffffffffffffffffffffffffffffffffff168152602001908152602001600020600a01908051906020019061093d929190614468565b5050505050565b600660008373ffffffffffffffffffffffffffffffffffffffff1673ffffffffffffffffffffffffffffffffffffffff16815260200190815260200160002060009054906101000a900460ff166109d0576040517f08c379a00000000000000000000000000000000000000000000000000000000081526004016109c7906158b9565b60405180910390fd5b600560008273ffffffffffffffffffffffffffffffffffffffff1673ffffffffffffffffffffffffffffffffffffffff16815260200190815260200160002060009054906101000a900460ff16610a5c576040517f08c379a0000000000000000000000000000000000000000000000000000000008152600401610a53906158d9565b60405180910390fd5b6000429050600080905085600487604051610a779190615711565b90815260200160405180910390206000019080519060200190610a9b929190614468565b5084600487604051610aad9190615711565b90815260200160405180910390206001019080519060200190610ad1929190614468565b5083600487604051610ae39190615711565b908152602001604051809103902060020160006101000a81548173ffffffffffffffffffffffffffffffffffffffff021916908373ffffffffffffffffffffffffffffffffffffffff16021790555081600487604051610b439190615711565b90815260200160405180910390206003018190555080600487604051610b699190615711565b908152602001604051809103902060040160006101000a81548160ff02191690836002811115610b9557fe5b0217905550600260008473ffffffffffffffffffffffffffffffffffffffff1673ffffffffffffffffffffffffffffffffffffffff168152602001908152602001600020600f01869080600181540180825580915050906001820390600052602060002001600090919290919091509080519060200190610c17929190614468565b50507fa8f9b0e7d42327661d46e236a278fc31bd69ab6e6da45464ed9722bbb8503f09868686858588604051610c52969594939291906157c9565b60405180910390a1505050505050565b600481805160208101820180518482526020830160208501208183528095505050505050600091509050806000018054600181600116156101000203166002900480601f016020809104026020016040519081016040528092919081815260200182805460018160011615610100020316600290048015610d245780601f10610cf957610100808354040283529160200191610d24565b820191906000526020600020905b815481529060010190602001808311610d0757829003601f168201915b505050505090806001018054600181600116156101000203166002900480601f016020809104026020016040519081016040528092919081815260200182805460018160011615610100020316600290048015610dc25780601f10610d9757610100808354040283529160200191610dc2565b820191906000526020600020905b815481529060010190602001808311610da557829003601f168201915b5050505050908060020160009054906101000a900473ffffffffffffffffffffffffffffffffffffffff16908060030154908060040160009054906101000a900460ff16905085565b600660008373ffffffffffffffffffffffffffffffffffffffff1673ffffffffffffffffffffffffffffffffffffffff16815260200190815260200160002060009054906101000a900460ff16610e97576040517f08c379a0000000000000000000000000000000000000000000000000000000008152600401610e8e906158b9565b60405180910390fd5b600560008273ffffffffffffffffffffffffffffffffffffffff1673ffffffffffffffffffffffffffffffffffffffff16815260200190815260200160002060009054906101000a900460ff16610f23576040517f08c379a0000000000000000000000000000000000000000000000000000000008152600401610f1a906158d9565b60405180910390fd5b600260008273ffffffffffffffffffffffffffffffffffffffff1673ffffffffffffffffffffffffffffffffffffffff168152602001908152602001600020600e018290806001815401808255809150509060018203906000526020600020016000909192909190916101000a81548173ffffffffffffffffffffffffffffffffffffffff021916908373ffffffffffffffffffffffffffffffffffffffff160217905550507fa58fd95ad438335ebea70c43acd7ba96835900dab734d4444ebcd10b286c8bd1828242604051610ffc9392919061573f565b60405180910390a15050565b60015481565b600088600001519050600560008a6000015173ffffffffffffffffffffffffffffffffffffffff1673ffffffffffffffffffffffffffffffffffffffff16815260200190815260200160002060009054906101000a900460ff161561107257600080fd5b6001600560008373ffffffffffffffffffffffffffffffffffffffff1673ffffffffffffffffffffffffffffffffffffffff16815260200190815260200160002060006101000a81548160ff0219169083151502179055506000896101000151905089600260008473ffffffffffffffffffffffffffffffffffffffff1673ffffffffffffffffffffffffffffffffffffffff16815260200190815260200160002060000160008201518160000160006101000a81548173ffffffffffffffffffffffffffffffffffffffff021916908373ffffffffffffffffffffffffffffffffffffffff160217905550602082015181600101908051906020019061117a9291906144e8565b5060408201518160020190805190602001906111979291906144e8565b5060608201518160030190805190602001906111b49291906144e8565b5060808201518160040190805190602001906111d19291906144e8565b5060a08201518160050190805190602001906111ee9291906144e8565b5060c082015181600601908051906020019061120b9291906144e8565b5060e08201518160070190805190602001906112289291906144e8565b50610100820151816008015590505088600260008473ffffffffffffffffffffffffffffffffffffffff1673ffffffffffffffffffffffffffffffffffffffff168152602001908152602001600020600901908051906020019061128d929190614468565b5087600260008473ffffffffffffffffffffffffffffffffffffffff1673ffffffffffffffffffffffffffffffffffffffff168152602001908152602001600020600a0190805190602001906112e4929190614468565b5086600260008473ffffffffffffffffffffffffffffffffffffffff1673ffffffffffffffffffffffffffffffffffffffff168152602001908152602001600020600b01908051906020019061133b929190614468565b5085600260008473ffffffffffffffffffffffffffffffffffffffff1673ffffffffffffffffffffffffffffffffffffffff168152602001908152602001600020600c019080519060200190611392929190614468565b5084600260008473ffffffffffffffffffffffffffffffffffffffff1673ffffffffffffffffffffffffffffffffffffffff168152602001908152602001600020600d0190805190602001906113e9929190614468565b5060008090505b84518110156114a5576006600086838151811061140957fe5b602002602001015173ffffffffffffffffffffffffffffffffffffffff1673ffffffffffffffffffffffffffffffffffffffff16815260200190815260200160002060009054906101000a900460ff16611498576040517f08c379a000000000000000000000000000000000000000000000000000000000815260040161148f90615899565b60405180910390fd5b80806001019150506113f0565b5083600260008473ffffffffffffffffffffffffffffffffffffffff1673ffffffffffffffffffffffffffffffffffffffff168152602001908152602001600020600e0190805190602001906114fc929190614568565b5060008081548092919060010191905055507f88a4b268a245c7e81b8962a18a5abe198a80bfa3d1ea8dd32a9e468ed97f265b8a600001518b604001518c602001518460405161154f9493929190615776565b60405180910390a150505050505050505050565b600560008273ffffffffffffffffffffffffffffffffffffffff1673ffffffffffffffffffffffffffffffffffffffff16815260200190815260200160002060009054906101000a900460ff166115ef576040517f08c379a00000000000000000000000000000000000000000000000000000000081526004016115e6906158d9565b60405180910390fd5b6004826040516115ff9190615711565b90815260200160405180910390206000808201600061161e91906145f2565b60018201600061162e91906145f2565b6002820160006101000a81549073ffffffffffffffffffffffffffffffffffffffff021916905560038201600090556004820160006101000a81549060ff0219169055505060008090505b600260008373ffffffffffffffffffffffffffffffffffffffff1673ffffffffffffffffffffffffffffffffffffffff168152602001908152602001600020600f01805490508110156117e557826040516020016116d79190615711565b60405160208183030381529060405280519060200120600260008473ffffffffffffffffffffffffffffffffffffffff1673ffffffffffffffffffffffffffffffffffffffff168152602001908152602001600020600f01828154811061173a57fe5b906000526020600020016040516020016117549190615728565b6040516020818303038152906040528051906020012014156117d857600260008373ffffffffffffffffffffffffffffffffffffffff1673ffffffffffffffffffffffffffffffffffffffff168152602001908152602001600020600f0181815481106117bd57fe5b9060005260206000200160006117d391906145f2565b6117e5565b8080600101915050611679565b505050565b600088600001519050600560008273ffffffffffffffffffffffffffffffffffffffff1673ffffffffffffffffffffffffffffffffffffffff16815260200190815260200160002060009054906101000a900460ff1661187f576040517f08c379a0000000000000000000000000000000000000000000000000000000008152600401611876906158d9565b60405180910390fd5b8860200151600260008373ffffffffffffffffffffffffffffffffffffffff1673ffffffffffffffffffffffffffffffffffffffff16815260200190815260200160002060000160010190805190602001906118dc929190614468565b508860400151600260008373ffffffffffffffffffffffffffffffffffffffff1673ffffffffffffffffffffffffffffffffffffffff168152602001908152602001600020600001600201908051906020019061193a929190614468565b508860600151600260008373ffffffffffffffffffffffffffffffffffffffff1673ffffffffffffffffffffffffffffffffffffffff1681526020019081526020016000206000016003019080519060200190611998929190614468565b508860800151600260008373ffffffffffffffffffffffffffffffffffffffff1673ffffffffffffffffffffffffffffffffffffffff16815260200190815260200160002060000160040190805190602001906119f6929190614468565b508860a00151600260008373ffffffffffffffffffffffffffffffffffffffff1673ffffffffffffffffffffffffffffffffffffffff1681526020019081526020016000206000016005019080519060200190611a54929190614468565b508860c00151600260008373ffffffffffffffffffffffffffffffffffffffff1673ffffffffffffffffffffffffffffffffffffffff1681526020019081526020016000206000016006019080519060200190611ab2929190614468565b508860e00151600260008373ffffffffffffffffffffffffffffffffffffffff1673ffffffffffffffffffffffffffffffffffffffff1681526020019081526020016000206000016007019080519060200190611b10929190614468565b5087600260008373ffffffffffffffffffffffffffffffffffffffff1673ffffffffffffffffffffffffffffffffffffffff1681526020019081526020016000206009019080519060200190611b67929190614468565b5086600260008373ffffffffffffffffffffffffffffffffffffffff1673ffffffffffffffffffffffffffffffffffffffff168152602001908152602001600020600a019080519060200190611bbe929190614468565b5085600260008373ffffffffffffffffffffffffffffffffffffffff1673ffffffffffffffffffffffffffffffffffffffff168152602001908152602001600020600b019080519060200190611c15929190614468565b5084600260008373ffffffffffffffffffffffffffffffffffffffff1673ffffffffffffffffffffffffffffffffffffffff168152602001908152602001600020600c019080519060200190611c6c929190614468565b5083600260008373ffffffffffffffffffffffffffffffffffffffff1673ffffffffffffffffffffffffffffffffffffffff168152602001908152602001600020600d019080519060200190611cc3929190614468565b5060008090505b8351811015611d7f5760066000858381518110611ce357fe5b602002602001015173ffffffffffffffffffffffffffffffffffffffff1673ffffffffffffffffffffffffffffffffffffffff16815260200190815260200160002060009054906101000a900460ff16611d72576040517f08c379a0000000000000000000000000000000000000000000000000000000008152600401611d6990615899565b60405180910390fd5b8080600101915050611cca565b5082600260008373ffffffffffffffffffffffffffffffffffffffff1673ffffffffffffffffffffffffffffffffffffffff168152602001908152602001600020600e019080519060200190611dd6929190614568565b5081600260008373ffffffffffffffffffffffffffffffffffffffff1673ffffffffffffffffffffffffffffffffffffffff168152602001908152602001600020600f019080519060200190611e2d92919061463a565b50505050505050505050565b600083600001519050600660008273ffffffffffffffffffffffffffffffffffffffff1673ffffffffffffffffffffffffffffffffffffffff16815260200190815260200160002060009054906101000a900460ff1615611e9957600080fd5b6001600660008373ffffffffffffffffffffffffffffffffffffffff1673ffffffffffffffffffffffffffffffffffffffff16815260200190815260200160002060006101000a81548160ff0219169083151502179055506000846101000151905084600360008473ffffffffffffffffffffffffffffffffffffffff1673ffffffffffffffffffffffffffffffffffffffff16815260200190815260200160002060000160008201518160000160006101000a81548173ffffffffffffffffffffffffffffffffffffffff021916908373ffffffffffffffffffffffffffffffffffffffff1602179055506020820151816001019080519060200190611fa19291906144e8565b506040820151816002019080519060200190611fbe9291906144e8565b506060820151816003019080519060200190611fdb9291906144e8565b506080820151816004019080519060200190611ff89291906144e8565b5060a08201518160050190805190602001906120159291906144e8565b5060c08201518160060190805190602001906120329291906144e8565b5060e082015181600701908051906020019061204f9291906144e8565b50610100820151816008015590505083600360008473ffffffffffffffffffffffffffffffffffffffff1673ffffffffffffffffffffffffffffffffffffffff16815260200190815260200160002060090190805190602001906120b4929190614468565b5082600360008473ffffffffffffffffffffffffffffffffffffffff1673ffffffffffffffffffffffffffffffffffffffff168152602001908152602001600020600a01908051906020019061210b929190614468565b506001600081548092919060010191905055507f87c5c024b616aed507b1cd9756c0594f4efc94d637550067d61b2293d03a6ea98560000151866040015187602001518460405161215f9493929190615776565b60405180910390a15050505050565b61217661469a565b6000600360008473ffffffffffffffffffffffffffffffffffffffff1673ffffffffffffffffffffffffffffffffffffffff168152602001908152602001600020600001600201805460018160011615610100020316600290049050111561285057600360008373ffffffffffffffffffffffffffffffffffffffff1673ffffffffffffffffffffffffffffffffffffffff16815260200190815260200160002060405180606001604052908160008201604051806101200160405290816000820160009054906101000a900473ffffffffffffffffffffffffffffffffffffffff1673ffffffffffffffffffffffffffffffffffffffff1673ffffffffffffffffffffffffffffffffffffffff168152602001600182018054600181600116156101000203166002900480601f0160208091040260200160405190810160405280929190818152602001828054600181600116156101000203166002900480156123225780601f106122f757610100808354040283529160200191612322565b820191906000526020600020905b81548152906001019060200180831161230557829003601f168201915b50505050508152602001600282018054600181600116156101000203166002900480601f0160208091040260200160405190810160405280929190818152602001828054600181600116156101000203166002900480156123c45780601f10612399576101008083540402835291602001916123c4565b820191906000526020600020905b8154815290600101906020018083116123a757829003601f168201915b50505050508152602001600382018054600181600116156101000203166002900480601f0160208091040260200160405190810160405280929190818152602001828054600181600116156101000203166002900480156124665780601f1061243b57610100808354040283529160200191612466565b820191906000526020600020905b81548152906001019060200180831161244957829003601f168201915b50505050508152602001600482018054600181600116156101000203166002900480601f0160208091040260200160405190810160405280929190818152602001828054600181600116156101000203166002900480156125085780601f106124dd57610100808354040283529160200191612508565b820191906000526020600020905b8154815290600101906020018083116124eb57829003601f168201915b50505050508152602001600582018054600181600116156101000203166002900480601f0160208091040260200160405190810160405280929190818152602001828054600181600116156101000203166002900480156125aa5780601f1061257f576101008083540402835291602001916125aa565b820191906000526020600020905b81548152906001019060200180831161258d57829003601f168201915b50505050508152602001600682018054600181600116156101000203166002900480601f01602080910402602001604051908101604052809291908181526020018280546001816001161561010002031660029004801561264c5780601f106126215761010080835404028352916020019161264c565b820191906000526020600020905b81548152906001019060200180831161262f57829003601f168201915b50505050508152602001600782018054600181600116156101000203166002900480601f0160208091040260200160405190810160405280929190818152602001828054600181600116156101000203166002900480156126ee5780601f106126c3576101008083540402835291602001916126ee565b820191906000526020600020905b8154815290600101906020018083116126d157829003601f168201915b505050505081526020016008820154815250508152602001600982018054600181600116156101000203166002900480601f01602080910402602001604051908101604052809291908181526020018280546001816001161561010002031660029004801561279e5780601f106127735761010080835404028352916020019161279e565b820191906000526020600020905b81548152906001019060200180831161278157829003601f168201915b50505050508152602001600a82018054600181600116156101000203166002900480601f0160208091040260200160405190810160405280929190818152602001828054600181600116156101000203166002900480156128405780601f1061281557610100808354040283529160200191612840565b820191906000526020600020905b81548152906001019060200180831161282357829003601f168201915b5050505050815250509050612851565b5b919050565b600260205280600052604060002060009150905080600001604051806101200160405290816000820160009054906101000a900473ffffffffffffffffffffffffffffffffffffffff1673ffffffffffffffffffffffffffffffffffffffff1673ffffffffffffffffffffffffffffffffffffffff168152602001600182018054600181600116156101000203166002900480601f0160208091040260200160405190810160405280929190818152602001828054600181600116156101000203166002900480156129695780601f1061293e57610100808354040283529160200191612969565b820191906000526020600020905b81548152906001019060200180831161294c57829003601f168201915b50505050508152602001600282018054600181600116156101000203166002900480601f016020809104026020016040519081016040528092919081815260200182805460018160011615610100020316600290048015612a0b5780601f106129e057610100808354040283529160200191612a0b565b820191906000526020600020905b8154815290600101906020018083116129ee57829003601f168201915b50505050508152602001600382018054600181600116156101000203166002900480601f016020809104026020016040519081016040528092919081815260200182805460018160011615610100020316600290048015612aad5780601f10612a8257610100808354040283529160200191612aad565b820191906000526020600020905b815481529060010190602001808311612a9057829003601f168201915b50505050508152602001600482018054600181600116156101000203166002900480601f016020809104026020016040519081016040528092919081815260200182805460018160011615610100020316600290048015612b4f5780601f10612b2457610100808354040283529160200191612b4f565b820191906000526020600020905b815481529060010190602001808311612b3257829003601f168201915b50505050508152602001600582018054600181600116156101000203166002900480601f016020809104026020016040519081016040528092919081815260200182805460018160011615610100020316600290048015612bf15780601f10612bc657610100808354040283529160200191612bf1565b820191906000526020600020905b815481529060010190602001808311612bd457829003601f168201915b50505050508152602001600682018054600181600116156101000203166002900480601f016020809104026020016040519081016040528092919081815260200182805460018160011615610100020316600290048015612c935780601f10612c6857610100808354040283529160200191612c93565b820191906000526020600020905b815481529060010190602001808311612c7657829003601f168201915b50505050508152602001600782018054600181600116156101000203166002900480601f016020809104026020016040519081016040528092919081815260200182805460018160011615610100020316600290048015612d355780601f10612d0a57610100808354040283529160200191612d35565b820191906000526020600020905b815481529060010190602001808311612d1857829003601f168201915b5050505050815260200160088201548152505090806009018054600181600116156101000203166002900480601f016020809104026020016040519081016040528092919081815260200182805460018160011615610100020316600290048015612de15780601f10612db657610100808354040283529160200191612de1565b820191906000526020600020905b815481529060010190602001808311612dc457829003601f168201915b50505050509080600a018054600181600116156101000203166002900480601f016020809104026020016040519081016040528092919081815260200182805460018160011615610100020316600290048015612e7f5780601f10612e5457610100808354040283529160200191612e7f565b820191906000526020600020905b815481529060010190602001808311612e6257829003601f168201915b50505050509080600b018054600181600116156101000203166002900480601f016020809104026020016040519081016040528092919081815260200182805460018160011615610100020316600290048015612f1d5780601f10612ef257610100808354040283529160200191612f1d565b820191906000526020600020905b815481529060010190602001808311612f0057829003601f168201915b50505050509080600c018054600181600116156101000203166002900480601f016020809104026020016040519081016040528092919081815260200182805460018160011615610100020316600290048015612fbb5780601f10612f9057610100808354040283529160200191612fbb565b820191906000526020600020905b815481529060010190602001808311612f9e57829003601f168201915b50505050509080600d018054600181600116156101000203166002900480601f0160208091040260200160405190810160405280929190818152602001828054600181600116156101000203166002900480156130595780601f1061302e57610100808354040283529160200191613059565b820191906000526020600020905b81548152906001019060200180831161303c57829003601f168201915b5050505050905086565b60005481565b613071614418565b6000429050856004876040516130879190615711565b908152602001604051809103902060000190805190602001906130ab929190614468565b50846004876040516130bd9190615711565b908152602001604051809103902060010190805190602001906130e1929190614468565b50836004876040516130f39190615711565b908152602001604051809103902060020160006101000a81548173ffffffffffffffffffffffffffffffffffffffff021916908373ffffffffffffffffffffffffffffffffffffffff160217905550806004876040516131539190615711565b908152602001604051809103902060030181905550826004876040516131799190615711565b908152602001604051809103902060040160006101000a81548160ff021916908360028111156131a557fe5b02179055506004866040516131ba9190615711565b90815260200160405180910390206040518060a0016040529081600082018054600181600116156101000203166002900480601f01602080910402602001604051908101604052809291908181526020018280546001816001161561010002031660029004801561326c5780601f106132415761010080835404028352916020019161326c565b820191906000526020600020905b81548152906001019060200180831161324f57829003601f168201915b50505050508152602001600182018054600181600116156101000203166002900480601f01602080910402602001604051908101604052809291908181526020018280546001816001161561010002031660029004801561330e5780601f106132e35761010080835404028352916020019161330e565b820191906000526020600020905b8154815290600101906020018083116132f157829003601f168201915b505050505081526020016002820160009054906101000a900473ffffffffffffffffffffffffffffffffffffffff1673ffffffffffffffffffffffffffffffffffffffff1673ffffffffffffffffffffffffffffffffffffffff168152602001600382015481526020016004820160009054906101000a900460ff16600281111561339557fe5b60028111156133a057fe5b81525050915050949350505050565b600360205280600052604060002060009150905080600001604051806101200160405290816000820160009054906101000a900473ffffffffffffffffffffffffffffffffffffffff1673ffffffffffffffffffffffffffffffffffffffff1673ffffffffffffffffffffffffffffffffffffffff168152602001600182018054600181600116156101000203166002900480601f0160208091040260200160405190810160405280929190818152602001828054600181600116156101000203166002900480156134c25780601f10613497576101008083540402835291602001916134c2565b820191906000526020600020905b8154815290600101906020018083116134a557829003601f168201915b50505050508152602001600282018054600181600116156101000203166002900480601f0160208091040260200160405190810160405280929190818152602001828054600181600116156101000203166002900480156135645780601f1061353957610100808354040283529160200191613564565b820191906000526020600020905b81548152906001019060200180831161354757829003601f168201915b50505050508152602001600382018054600181600116156101000203166002900480601f0160208091040260200160405190810160405280929190818152602001828054600181600116156101000203166002900480156136065780601f106135db57610100808354040283529160200191613606565b820191906000526020600020905b8154815290600101906020018083116135e957829003601f168201915b50505050508152602001600482018054600181600116156101000203166002900480601f0160208091040260200160405190810160405280929190818152602001828054600181600116156101000203166002900480156136a85780601f1061367d576101008083540402835291602001916136a8565b820191906000526020600020905b81548152906001019060200180831161368b57829003601f168201915b50505050508152602001600582018054600181600116156101000203166002900480601f01602080910402602001604051908101604052809291908181526020018280546001816001161561010002031660029004801561374a5780601f1061371f5761010080835404028352916020019161374a565b820191906000526020600020905b81548152906001019060200180831161372d57829003601f168201915b50505050508152602001600682018054600181600116156101000203166002900480601f0160208091040260200160405190810160405280929190818152602001828054600181600116156101000203166002900480156137ec5780601f106137c1576101008083540402835291602001916137ec565b820191906000526020600020905b8154815290600101906020018083116137cf57829003601f168201915b50505050508152602001600782018054600181600116156101000203166002900480601f01602080910402602001604051908101604052809291908181526020018280546001816001161561010002031660029004801561388e5780601f106138635761010080835404028352916020019161388e565b820191906000526020600020905b81548152906001019060200180831161387157829003601f168201915b5050505050815260200160088201548152505090806009018054600181600116156101000203166002900480601f01602080910402602001604051908101604052809291908181526020018280546001816001161561010002031660029004801561393a5780601f1061390f5761010080835404028352916020019161393a565b820191906000526020600020905b81548152906001019060200180831161391d57829003601f168201915b50505050509080600a018054600181600116156101000203166002900480601f0160208091040260200160405190810160405280929190818152602001828054600181600116156101000203166002900480156139d85780601f106139ad576101008083540402835291602001916139d8565b820191906000526020600020905b8154815290600101906020018083116139bb57829003601f168201915b5050505050905083565b6139ea6146c1565b600560008373ffffffffffffffffffffffffffffffffffffffff1673ffffffffffffffffffffffffffffffffffffffff16815260200190815260200160002060009054906101000a900460ff161561441257600260008373ffffffffffffffffffffffffffffffffffffffff1673ffffffffffffffffffffffffffffffffffffffff1681526020019081526020016000206040518061010001604052908160008201604051806101200160405290816000820160009054906101000a900473ffffffffffffffffffffffffffffffffffffffff1673ffffffffffffffffffffffffffffffffffffffff1673ffffffffffffffffffffffffffffffffffffffff168152602001600182018054600181600116156101000203166002900480601f016020809104026020016040519081016040528092919081815260200182805460018160011615610100020316600290048015613b875780601f10613b5c57610100808354040283529160200191613b87565b820191906000526020600020905b815481529060010190602001808311613b6a57829003601f168201915b50505050508152602001600282018054600181600116156101000203166002900480601f016020809104026020016040519081016040528092919081815260200182805460018160011615610100020316600290048015613c295780601f10613bfe57610100808354040283529160200191613c29565b820191906000526020600020905b815481529060010190602001808311613c0c57829003601f168201915b50505050508152602001600382018054600181600116156101000203166002900480601f016020809104026020016040519081016040528092919081815260200182805460018160011615610100020316600290048015613ccb5780601f10613ca057610100808354040283529160200191613ccb565b820191906000526020600020905b815481529060010190602001808311613cae57829003601f168201915b50505050508152602001600482018054600181600116156101000203166002900480601f016020809104026020016040519081016040528092919081815260200182805460018160011615610100020316600290048015613d6d5780601f10613d4257610100808354040283529160200191613d6d565b820191906000526020600020905b815481529060010190602001808311613d5057829003601f168201915b50505050508152602001600582018054600181600116156101000203166002900480601f016020809104026020016040519081016040528092919081815260200182805460018160011615610100020316600290048015613e0f5780601f10613de457610100808354040283529160200191613e0f565b820191906000526020600020905b815481529060010190602001808311613df257829003601f168201915b50505050508152602001600682018054600181600116156101000203166002900480601f016020809104026020016040519081016040528092919081815260200182805460018160011615610100020316600290048015613eb15780601f10613e8657610100808354040283529160200191613eb1565b820191906000526020600020905b815481529060010190602001808311613e9457829003601f168201915b50505050508152602001600782018054600181600116156101000203166002900480601f016020809104026020016040519081016040528092919081815260200182805460018160011615610100020316600290048015613f535780601f10613f2857610100808354040283529160200191613f53565b820191906000526020600020905b815481529060010190602001808311613f3657829003601f168201915b505050505081526020016008820154815250508152602001600982018054600181600116156101000203166002900480601f0160208091040260200160405190810160405280929190818152602001828054600181600116156101000203166002900480156140035780601f10613fd857610100808354040283529160200191614003565b820191906000526020600020905b815481529060010190602001808311613fe657829003601f168201915b50505050508152602001600a82018054600181600116156101000203166002900480601f0160208091040260200160405190810160405280929190818152602001828054600181600116156101000203166002900480156140a55780601f1061407a576101008083540402835291602001916140a5565b820191906000526020600020905b81548152906001019060200180831161408857829003601f168201915b50505050508152602001600b82018054600181600116156101000203166002900480601f0160208091040260200160405190810160405280929190818152602001828054600181600116156101000203166002900480156141475780601f1061411c57610100808354040283529160200191614147565b820191906000526020600020905b81548152906001019060200180831161412a57829003601f168201915b50505050508152602001600c82018054600181600116156101000203166002900480601f0160208091040260200160405190810160405280929190818152602001828054600181600116156101000203166002900480156141e95780601f106141be576101008083540402835291602001916141e9565b820191906000526020600020905b8154815290600101906020018083116141cc57829003601f168201915b50505050508152602001600d82018054600181600116156101000203166002900480601f01602080910402602001604051908101604052809291908181526020018280546001816001161561010002031660029004801561428b5780601f106142605761010080835404028352916020019161428b565b820191906000526020600020905b81548152906001019060200180831161426e57829003601f168201915b50505050508152602001600e820180548060200260200160405190810160405280929190818152602001828054801561431957602002820191906000526020600020905b8160009054906101000a900473ffffffffffffffffffffffffffffffffffffffff1673ffffffffffffffffffffffffffffffffffffffff16815260200190600101908083116142cf575b50505050508152602001600f8201805480602002602001604051908101604052809291908181526020016000905b82821015614403578382906000526020600020018054600181600116156101000203166002900480601f0160208091040260200160405190810160405280929190818152602001828054600181600116156101000203166002900480156143ef5780601f106143c4576101008083540402835291602001916143ef565b820191906000526020600020905b8154815290600101906020018083116143d257829003601f168201915b505050505081526020019060010190614347565b50505050815250509050614413565b5b919050565b6040518060a001604052806060815260200160608152602001600073ffffffffffffffffffffffffffffffffffffffff168152602001600081526020016000600281111561446257fe5b81525090565b828054600181600116156101000203166002900490600052602060002090601f016020900481019282601f106144a957805160ff19168380011785556144d7565b828001600101855582156144d7579182015b828111156144d65782518255916020019190600101906144bb565b5b5090506144e4919061470c565b5090565b828054600181600116156101000203166002900490600052602060002090601f016020900481019282601f1061452957805160ff1916838001178555614557565b82800160010185558215614557579182015b8281111561455657825182559160200191906001019061453b565b5b509050614564919061470c565b5090565b8280548282559060005260206000209081019282156145e1579160200282015b828111156145e05782518260006101000a81548173ffffffffffffffffffffffffffffffffffffffff021916908373ffffffffffffffffffffffffffffffffffffffff16021790555091602001919060010190614588565b5b5090506145ee9190614731565b5090565b50805460018160011615610100020316600290046000825580601f106146185750614637565b601f016020900490600052602060002090810190614636919061470c565b5b50565b828054828255906000526020600020908101928215614689579160200282015b828111156146885782518290805190602001906146789291906144e8565b509160200191906001019061465a565b5b5090506146969190614774565b5090565b60405180606001604052806146ad6147a0565b815260200160608152602001606081525090565b6040518061010001604052806146d56147a0565b8152602001606081526020016060815260200160608152602001606081526020016060815260200160608152602001606081525090565b61472e91905b8082111561472a576000816000905550600101614712565b5090565b90565b61477191905b8082111561476d57600081816101000a81549073ffffffffffffffffffffffffffffffffffffffff021916905550600101614737565b5090565b90565b61479d91905b80821115614799576000818161479091906145f2565b5060010161477a565b5090565b90565b604051806101200160405280600073ffffffffffffffffffffffffffffffffffffffff16815260200160608152602001606081526020016060815260200160608152602001606081526020016060815260200160608152602001600081525090565b60008135905061481181615cb1565b92915050565b600082601f83011261482857600080fd5b813561483b61483682615a7e565b615a51565b9150818183526020840193506020810190508385602084028201111561486057600080fd5b60005b8381101561489057816148768882614802565b845260208401935060208301925050600181019050614863565b5050505092915050565b600082601f8301126148ab57600080fd5b81356148be6148b982615aa6565b615a51565b9150818183526020840193506020810190508360005b8381101561490457813586016148ea8882614923565b8452602084019350602083019250506001810190506148d4565b5050505092915050565b60008135905061491d81615cc8565b92915050565b600082601f83011261493457600080fd5b813561494761494282615ace565b615a51565b9150808252602083016020830185838301111561496357600080fd5b61496e838284615c51565b50505092915050565b600082601f83011261498857600080fd5b813561499b61499682615afa565b615a51565b915080825260208301602083018583830111156149b757600080fd5b6149c2838284615c51565b50505092915050565b600061012082840312156149de57600080fd5b6149e9610120615a51565b905060006149f984828501614802565b600083015250602082013567ffffffffffffffff811115614a1957600080fd5b614a2584828501614923565b602083015250604082013567ffffffffffffffff811115614a4557600080fd5b614a5184828501614923565b604083015250606082013567ffffffffffffffff811115614a7157600080fd5b614a7d84828501614923565b606083015250608082013567ffffffffffffffff811115614a9d57600080fd5b614aa984828501614923565b60808301525060a082013567ffffffffffffffff811115614ac957600080fd5b614ad584828501614923565b60a08301525060c082013567ffffffffffffffff811115614af557600080fd5b614b0184828501614923565b60c08301525060e082013567ffffffffffffffff811115614b2157600080fd5b614b2d84828501614923565b60e083015250610100614b4284828501614b4f565b6101008301525092915050565b600081359050614b5e81615cd8565b92915050565b600060208284031215614b7657600080fd5b6000614b8484828501614802565b91505092915050565b60008060408385031215614ba057600080fd5b6000614bae85828601614802565b9250506020614bbf85828601614802565b9150509250929050565b600060208284031215614bdb57600080fd5b600082013567ffffffffffffffff811115614bf557600080fd5b614c0184828501614923565b91505092915050565b600060208284031215614c1c57600080fd5b600082013567ffffffffffffffff811115614c3657600080fd5b614c4284828501614977565b91505092915050565b60008060408385031215614c5e57600080fd5b600083013567ffffffffffffffff811115614c7857600080fd5b614c8485828601614977565b9250506020614c9585828601614802565b9150509250929050565b60008060008060808587031215614cb557600080fd5b600085013567ffffffffffffffff811115614ccf57600080fd5b614cdb87828801614977565b945050602085013567ffffffffffffffff811115614cf857600080fd5b614d0487828801614977565b9350506040614d1587828801614802565b9250506060614d2687828801614802565b91505092959194509250565b60008060008060808587031215614d4857600080fd5b600085013567ffffffffffffffff811115614d6257600080fd5b614d6e87828801614977565b945050602085013567ffffffffffffffff811115614d8b57600080fd5b614d9787828801614977565b9350506040614da887828801614802565b9250506060614db98782880161490e565b91505092959194509250565b600080600060608486031215614dda57600080fd5b600084013567ffffffffffffffff811115614df457600080fd5b614e00868287016149cb565b935050602084013567ffffffffffffffff811115614e1d57600080fd5b614e2986828701614977565b925050604084013567ffffffffffffffff811115614e4657600080fd5b614e5286828701614977565b9150509250925092565b600080600080600080600080610100898b031215614e7957600080fd5b600089013567ffffffffffffffff811115614e9357600080fd5b614e9f8b828c016149cb565b985050602089013567ffffffffffffffff811115614ebc57600080fd5b614ec88b828c01614977565b975050604089013567ffffffffffffffff811115614ee557600080fd5b614ef18b828c01614977565b965050606089013567ffffffffffffffff811115614f0e57600080fd5b614f1a8b828c01614977565b955050608089013567ffffffffffffffff811115614f3757600080fd5b614f438b828c01614977565b94505060a089013567ffffffffffffffff811115614f6057600080fd5b614f6c8b828c01614977565b93505060c089013567ffffffffffffffff811115614f8957600080fd5b614f958b828c01614817565b92505060e089013567ffffffffffffffff811115614fb257600080fd5b614fbe8b828c0161489a565b9150509295985092959890939650565b6000614fda8383614ffa565b60208301905092915050565b6000614ff28383615173565b905092915050565b61500381615bf0565b82525050565b61501281615bf0565b82525050565b600061502382615b5b565b61502d8185615ba1565b935061503883615b26565b8060005b838110156150695781516150508882614fce565b975061505b83615b87565b92505060018101905061503c565b5085935050505092915050565b600061508182615b66565b61508b8185615bb2565b93508360208202850161509d85615b36565b8060005b858110156150d957848403895281516150ba8582614fe6565b94506150c583615b94565b925060208a019950506001810190506150a1565b50829750879550505050505092915050565b6150f481615c3f565b82525050565b61510381615c3f565b82525050565b600061511482615b7c565b61511e8185615bd4565b935061512e818560208601615c60565b61513781615c93565b840191505092915050565b600061514d82615b7c565b6151578185615be5565b9350615167818560208601615c60565b80840191505092915050565b600061517e82615b71565b6151888185615bc3565b9350615198818560208601615c60565b6151a181615c93565b840191505092915050565b60006151b782615b71565b6151c18185615bd4565b93506151d1818560208601615c60565b6151da81615c93565b840191505092915050565b60008154600181166000811461520257600181146152275761526b565b607f60028304166152138187615be5565b955060ff198316865280860193505061526b565b600282046152358187615be5565b955061524085615b46565b60005b8281101561526257815481890152600182019150602081019050615243565b82880195505050505b505092915050565b6000615280602683615bd4565b91507f57686974656c697374656420646f63746f7220636f6e7461696e73206e6f6e2d60008301527f646f63746f7200000000000000000000000000000000000000000000000000006020830152604082019050919050565b60006152e6601883615bd4565b91507f41646472657373206973206e6f74206120646f63746f722100000000000000006000830152602082019050919050565b6000615326601983615bd4565b91507f41646472657373206973206e6f7420612070617469656e7421000000000000006000830152602082019050919050565b600060608301600083015184820360008601526153768282615515565b915050602083015184820360208601526153908282615173565b915050604083015184820360408601526153aa8282615173565b9150508091505092915050565b60006101008301600083015184820360008601526153d58282615515565b915050602083015184820360208601526153ef8282615173565b915050604083015184820360408601526154098282615173565b915050606083015184820360608601526154238282615173565b9150506080830151848203608086015261543d8282615173565b91505060a083015184820360a08601526154578282615173565b91505060c083015184820360c08601526154718282615018565b91505060e083015184820360e086015261548b8282615076565b9150508091505092915050565b600060a08301600083015184820360008601526154b58282615173565b915050602083015184820360208601526154cf8282615173565b91505060408301516154e46040860182614ffa565b5060608301516154f760608601826156f3565b50608083015161550a60808601826150eb565b508091505092915050565b60006101208301600083015161552e6000860182614ffa565b50602083015184820360208601526155468282615173565b915050604083015184820360408601526155608282615173565b9150506060830151848203606086015261557a8282615173565b915050608083015184820360808601526155948282615173565b91505060a083015184820360a08601526155ae8282615173565b91505060c083015184820360c08601526155c88282615173565b91505060e083015184820360e08601526155e28282615173565b9150506101008301516155f96101008601826156f3565b508091505092915050565b60006101208301600083015161561d6000860182614ffa565b50602083015184820360208601526156358282615173565b9150506040830151848203604086015261564f8282615173565b915050606083015184820360608601526156698282615173565b915050608083015184820360808601526156838282615173565b91505060a083015184820360a086015261569d8282615173565b91505060c083015184820360c08601526156b78282615173565b91505060e083015184820360e08601526156d18282615173565b9150506101008301516156e86101008601826156f3565b508091505092915050565b6156fc81615c35565b82525050565b61570b81615c35565b82525050565b600061571d8284615142565b915081905092915050565b600061573482846151e5565b915081905092915050565b60006060820190506157546000830186615009565b6157616020830185615009565b61576e6040830184615702565b949350505050565b600060808201905061578b6000830187615009565b818103602083015261579d81866151ac565b905081810360408301526157b181856151ac565b90506157c06060830184615702565b95945050505050565b600060c08201905081810360008301526157e38189615109565b905081810360208301526157f78188615109565b90506158066040830187615009565b6158136060830186615702565b61582060808301856150fa565b61582d60a0830184615009565b979650505050505050565b600060a082019050818103600083015261585281886151ac565b9050818103602083015261586681876151ac565b90506158756040830186615009565b6158826060830185615702565b61588f60808301846150fa565b9695505050505050565b600060208201905081810360008301526158b281615273565b9050919050565b600060208201905081810360008301526158d2816152d9565b9050919050565b600060208201905081810360008301526158f281615319565b9050919050565b600060208201905081810360008301526159138184615359565b905092915050565b6000602082019050818103600083015261593581846153b7565b905092915050565b600060208201905081810360008301526159578184615498565b905092915050565b600060608201905081810360008301526159798186615604565b9050818103602083015261598d81856151ac565b905081810360408301526159a181846151ac565b9050949350505050565b600060c08201905081810360008301526159c58189615604565b905081810360208301526159d981886151ac565b905081810360408301526159ed81876151ac565b90508181036060830152615a0181866151ac565b90508181036080830152615a1581856151ac565b905081810360a0830152615a2981846151ac565b9050979650505050505050565b6000602082019050615a4b6000830184615702565b92915050565b6000604051905081810181811067ffffffffffffffff82111715615a7457600080fd5b8060405250919050565b600067ffffffffffffffff821115615a9557600080fd5b602082029050602081019050919050565b600067ffffffffffffffff821115615abd57600080fd5b602082029050602081019050919050565b600067ffffffffffffffff821115615ae557600080fd5b601f19601f8301169050602081019050919050565b600067ffffffffffffffff821115615b1157600080fd5b601f19601f8301169050602081019050919050565b6000819050602082019050919050565b6000819050602082019050919050565b60008190508160005260206000209050919050565b600081519050919050565b600081519050919050565b600081519050919050565b600081519050919050565b6000602082019050919050565b6000602082019050919050565b600082825260208201905092915050565b600082825260208201905092915050565b600082825260208201905092915050565b600082825260208201905092915050565b600081905092915050565b6000615bfb82615c15565b9050919050565b6000819050615c1082615ca4565b919050565b600073ffffffffffffffffffffffffffffffffffffffff82169050919050565b6000819050919050565b6000615c4a82615c02565b9050919050565b82818337600083830152505050565b60005b83811015615c7e578082015181840152602081019050615c63565b83811115615c8d576000848401525b50505050565b6000601f19601f8301169050919050565b60038110615cae57fe5b50565b615cba81615bf0565b8114615cc557600080fd5b50565b60038110615cd557600080fd5b50565b615ce181615c35565b8114615cec57600080fd5b5056fea365627a7a72315820d80fc54355cd7ee634e0a4e2244eb478a1f9b8e133f974498de718b290803b176c6578706572696d656e74616cf564736f6c63430005100040",
  "source": "// SPDX-License-Identifier: MIT\npragma solidity 0.5.16;\npragma experimental ABIEncoderV2;\n\ncontract MainContract {\n    struct User {\n        address addr;\n        string IC;\n        string name;\n        string gender;\n        string birthdate;\n        string email;\n        string homeAddress;\n        string phone;\n        uint256 userSince;\n    }\n\n    struct Doctor {\n        User primaryInfo;\n        string qualification;\n        string major;\n    }\n\n    enum RecordStatus {\n        PENDING,\n        COMPLETED,\n        DECLINED\n    }\n\n    struct Record {\n        string encryptedID;\n        string dataHash;\n        address issuerDoctorAddr;\n        uint timestamp;\n        RecordStatus recordStatus;\n    }\n\n    struct Patient {\n        User primaryInfo;\n        string emergencyContact;\n        string emergencyNumber;\n        string bloodType;\n        string height;\n        string weight;\n        address[] whitelistedDoctor;\n        string[] recordList;\n    }\n\n    uint public totalPatients = 0;\n    uint public totalDoctors = 0;\n    mapping(address => Patient) public patientList;\n    mapping(address => Doctor) public doctorList;\n    mapping(string => Record) public recordList;\n    mapping(address => bool) isPatient;\n    mapping(address => bool) isDoctor;\n\n    event PatientCreated(\n        address patientAddr,\n        string patientName,\n        string patientIC,\n        uint256 timestamp\n    );\n\n    event DoctorCreated(\n        address doctorAddr,\n        string doctorName,\n        string doctorIC,\n        uint256 timestamp\n    );\n\n    event WhitelistDoctor(\n        address patientAddr,\n        address doctorAddr,\n        uint256 timestamp\n    );\n\n    event RecordCreated(\n        string encryptedID,\n        string dataHash,\n        address issuerDoctorAddr,\n        uint timestamp,\n        RecordStatus recordStatus,\n        address patientAddr\n    );\n\n    function createPatient(\n        User memory userInfo,\n        string memory _emergencyContact,\n        string memory _emergencyNumber,\n        string memory _bloodType,\n        string memory _height,\n        string memory _weight,\n        address[] memory _whitelistedDoctor,\n        string[] memory _recordList\n    ) public {\n        address patientAddress = userInfo.addr;\n\n        require(!isPatient[userInfo.addr]);\n        isPatient[patientAddress] = true;\n\n        uint256 timestamp = userInfo.userSince;\n        patientList[patientAddress].primaryInfo = userInfo;\n        patientList[patientAddress].emergencyContact = _emergencyContact;\n        patientList[patientAddress].emergencyNumber = _emergencyNumber;\n        patientList[patientAddress].bloodType = _bloodType;\n        patientList[patientAddress].height = _height;\n        patientList[patientAddress].weight = _weight;\n\n        // address[] memory whitelistedDoctor;\n        for (uint i = 0; i < _whitelistedDoctor.length; i++) {\n            require(\n                isDoctor[_whitelistedDoctor[i]],\n                \"Whitelisted doctor contains non-doctor\"\n            );\n        }\n        patientList[patientAddress].whitelistedDoctor = _whitelistedDoctor;\n\n        totalPatients++;\n\n        emit PatientCreated(\n            userInfo.addr,\n            userInfo.name,\n            userInfo.IC,\n            timestamp\n        );\n    }\n\n    function setPatientDetails(\n        User memory userInfo,\n        string memory _emergencyContact,\n        string memory _emergencyNumber,\n        string memory _bloodType,\n        string memory _height,\n        string memory _weight,\n        address[] memory _whitelistedDoctor,\n        string[] memory _recordList\n    ) public {\n        address patientAddress = userInfo.addr;\n        require(isPatient[patientAddress], \"Address is not a patient!\");\n        // Update all except address & userSince\n        patientList[patientAddress].primaryInfo.IC = userInfo.IC;\n        patientList[patientAddress].primaryInfo.name = userInfo.name;\n        patientList[patientAddress].primaryInfo.gender = userInfo.gender;\n        patientList[patientAddress].primaryInfo.birthdate = userInfo.birthdate;\n        patientList[patientAddress].primaryInfo.email = userInfo.email;\n        patientList[patientAddress].primaryInfo.homeAddress = userInfo\n            .homeAddress;\n        patientList[patientAddress].primaryInfo.phone = userInfo.phone;\n\n        patientList[patientAddress].emergencyContact = _emergencyContact;\n        patientList[patientAddress].emergencyNumber = _emergencyNumber;\n        patientList[patientAddress].bloodType = _bloodType;\n        patientList[patientAddress].height = _height;\n        patientList[patientAddress].weight = _weight;\n\n        // address[] memory whitelistedDoctor;\n        for (uint i = 0; i < _whitelistedDoctor.length; i++) {\n            require(\n                isDoctor[_whitelistedDoctor[i]],\n                \"Whitelisted doctor contains non-doctor\"\n            );\n        }\n        patientList[patientAddress].whitelistedDoctor = _whitelistedDoctor;\n        patientList[patientAddress].recordList = _recordList;\n    }\n\n    function addWhitelistedDoctor(\n        address doctorAddress,\n        address patientAddress\n    ) public {\n        require(isDoctor[doctorAddress], \"Address is not a doctor!\");\n        require(isPatient[patientAddress], \"Address is not a patient!\");\n        patientList[patientAddress].whitelistedDoctor.push(doctorAddress);\n\n        emit WhitelistDoctor(doctorAddress, patientAddress, block.timestamp);\n    }\n\n    function getPatientDetails(\n        address patientAddress\n    ) public view returns (Patient memory) {\n        if (isPatient[patientAddress]) {\n            return patientList[patientAddress];\n        }\n    }\n\n    function createDoctor(\n        User memory userInfo,\n        string memory _qualification,\n        string memory _major\n    ) public {\n        address doctorAddress = userInfo.addr;\n        require(!isDoctor[doctorAddress]);\n\n        isDoctor[doctorAddress] = true;\n        uint256 timestamp = userInfo.userSince;\n\n        doctorList[doctorAddress].primaryInfo = userInfo;\n        doctorList[doctorAddress].qualification = _qualification;\n        doctorList[doctorAddress].major = _major;\n\n        totalDoctors++;\n\n        emit DoctorCreated(\n            userInfo.addr,\n            userInfo.name,\n            userInfo.IC,\n            timestamp\n        );\n    }\n\n    function setDoctorDetails(\n        User memory userInfo,\n        string memory _qualification,\n        string memory _major\n    ) public {\n        address doctorAddress = userInfo.addr;\n        require(isDoctor[doctorAddress], \"Address is not a doctor!\");\n\n        // Update all except address & userSince\n        doctorList[doctorAddress].primaryInfo.IC = userInfo.IC;\n        doctorList[doctorAddress].primaryInfo.name = userInfo.name;\n        doctorList[doctorAddress].primaryInfo.gender = userInfo.gender;\n        doctorList[doctorAddress].primaryInfo.birthdate = userInfo.birthdate;\n        doctorList[doctorAddress].primaryInfo.email = userInfo.email;\n        doctorList[doctorAddress].primaryInfo.homeAddress = userInfo\n            .homeAddress;\n        doctorList[doctorAddress].primaryInfo.phone = userInfo.phone;\n        doctorList[doctorAddress].qualification = _qualification;\n        doctorList[doctorAddress].major = _major;\n    }\n\n    function getDoctorDetails(\n        address doctorAddress\n    ) public view returns (Doctor memory) {\n        if (bytes(doctorList[doctorAddress].primaryInfo.name).length > 0) {\n            return doctorList[doctorAddress];\n        }\n    }\n\n    function createRecord(\n        string memory _encryptedID,\n        string memory _dataHash,\n        address _issuerDoctorAddr,\n        address _patientAddr\n    ) public {\n        require(isDoctor[_issuerDoctorAddr], \"Address is not a doctor!\");\n        require(isPatient[_patientAddr], \"Address is not a patient!\");\n\n        uint256 timestamp = block.timestamp;\n        RecordStatus recordStatus = RecordStatus.PENDING;\n\n        recordList[_encryptedID].encryptedID = _encryptedID;\n        recordList[_encryptedID].dataHash = _dataHash;\n        recordList[_encryptedID].issuerDoctorAddr = _issuerDoctorAddr;\n        recordList[_encryptedID].timestamp = timestamp;\n        recordList[_encryptedID].recordStatus = recordStatus;\n\n        patientList[_patientAddr].recordList.push(_encryptedID);\n\n        emit RecordCreated(\n            _encryptedID,\n            _dataHash,\n            _issuerDoctorAddr,\n            timestamp,\n            recordStatus,\n            _patientAddr\n        );\n    }\n\n    function getRecordDetails(\n        string memory _encryptedID\n    ) public view returns (Record memory) {\n        return recordList[_encryptedID];\n    }\n\n    function editRecord(\n        string memory _encryptedID,\n        string memory _dataHash,\n        address _issuerDoctorAddr,\n        RecordStatus _recordStatus\n    ) public returns (Record memory) {\n        uint256 timestamp = block.timestamp;\n        recordList[_encryptedID].encryptedID = _encryptedID;\n        recordList[_encryptedID].dataHash = _dataHash;\n        recordList[_encryptedID].issuerDoctorAddr = _issuerDoctorAddr;\n        recordList[_encryptedID].timestamp = timestamp;\n        recordList[_encryptedID].recordStatus = _recordStatus;\n\n        return recordList[_encryptedID];\n    }\n\n    function removeRecord(\n        string memory _encryptedID,\n        address _patientAddress\n    ) public {\n        require(isPatient[_patientAddress], \"Address is not a patient!\");\n        delete recordList[_encryptedID];\n\n        for (\n            uint i = 0;\n            i < patientList[_patientAddress].recordList.length;\n            i++\n        ) {\n            if (\n                keccak256(\n                    abi.encodePacked(patientList[_patientAddress].recordList[i])\n                ) == keccak256(abi.encodePacked(_encryptedID))\n            ) {\n                delete patientList[_patientAddress].recordList[i];\n                break;\n            }\n        }\n    }\n}\n",
  "sourcePath": "/Users/vanessachristy/Documents/School Y4S1/FYP/mymedtrust/contracts/MainContract.sol",
  "compiler": {
    "name": "solc",
    "version": "0.5.16+commit.9c3226ce.Emscripten.clang"
  },
  "schemaVersion": "3.4.15",
  "updatedAt": "2023-10-06T09:51:38.893Z",
  "devdoc": {
    "methods": {}
  },
  "userdoc": {
    "methods": {}
  }
}